:020000040000FA
:060000007AEF0DF0120082
:061000007AEF0DF0120072
:0610080049EF0CF012009C
:0610180094EF0CF0120041
:06102A0003001F1B000083
:101030009000000003000000101B0000730000007F
:101040000F0000000C1B00008C00000004000000DA
:10105000800E6F6EE00E6E14800801E0FBD7040E68
:10106000706ED10E716E810E726E776A778E779C7C
:10107000608C609A0D01FC6BA46A030EA36EA56ED2
:10108000FA696F6AE00E6E1401E0FCD758EC0DF0BF
:10109000000EE66EE66AB3EC0CF0E552E5522A0863
:1010A0002BE1010EE66EE66AB3EC0CF0E552E55278
:1010B000006E00C001F0006A00C0E6FF01C0E6FF5C
:1010C000020EE66EE66AB3EC0CF0E552E552E5522C
:1010D000E7CF01F0E552E7CF00F000010024906F68
:1010E000000E0120916F030EE66EE66AB3EC0CF081
:1010F000E552E5520001926F0001646B080E656FC6
:10110000666B010E6A6F6B6F020EE66E64C0E6FFDF
:1011100065C0E6FF66C0E6FF67C0E6FF68C0E6FFA1
:1011200069C0E6FF6AC0E6FF6BC0E6FF6CC0E6FF81
:101130006DC0E6FF6EC0E6FF6FC0E6FF70C0E6FF61
:1011400071C0E6FF72C0E6FFF3D9006E100EE15EDB
:101150000050000901E1D8D71200A450020B06E1AB
:10116000A450020B03E1A450010B16E00F0E6F1404
:101170001009006E000E77140010776E60BE6AD8FA
:10118000A4A202D0A49265D0A4A202D0A49261D05D
:10119000A4A002D0A4905DD06CEC0DF062EC0DF038
:1011A00000016051125C006E000161511358016E24
:1011B000000162511458026E000163511558036E0C
:1011C000D880F40E0054010E0154000E0254000E9B
:1011D00003543EE20001646B080E0001656F666B0C
:1011E0000001010E6A6F0001020E6B6F020EE66EC7
:1011F00064C0E6FF65C0E6FF66C0E6FF67C0E6FFC5
:1012000068C0E6FF69C0E6FF6AC0E6FF6BC0E6FFA4
:101210006CC0E6FF6DC0E6FF6EC0E6FF6FC0E6FF84
:1012200070C0E6FF71C0E6FF72C0E6FF81D9006EB4
:10123000100EE15E0050000901E1D8D762EC0DF01C
:1012400012C060F013C061F014C062F015C063F00A
:1012500004001200D9CFE6FFE1CFD9FF0F0EE1263F
:10126000F00E6114E8380F0BDF6E0F0E6114066E7E
:10127000076A060ED89006360736E804FBE1E00E52
:101280006214086E096AD89009320832D89009327F
:10129000083206500824046E07500920056E030E1C
:1012A00062140A6E0B6AD8900A360B3604500A2470
:1012B000026E05500B20036E800E63140C6E0D6AD7
:1012C000070ED8900D320C32E804FBE102500C24DA
:1012D000006E03500D20016E010E00C0DBFF020EF8
:1012E00001C0DBFF7E0E6314E8407F0BE76E030E48
:1012F000E7CFDBFF010E6314026E02C003F0026A47
:10130000645000010224006E000E0320016E040EE2
:1013100000C0DBFF050E01C0DBFF6550010B026E54
:101320006550020B01E0010EE824016E6550040BCC
:1013300001E0010E040DF3CF00F06550080B01E051
:10134000010E080DF350002401240224E76E060E5E
:10135000E7CFDBFF070E66CFDBFF080E67CFDBFFB3
:10136000090E68CFDBFF0A0E69CFDBFF0B0E6ACFD9
:10137000DBFF0C0E6BCFDBFF0D0E6CCFDBFF0E0E19
:101380006DCFDBFF609EDF5001E0A0D0030EDB508D
:101390000001925D01E09AD00C0EDBCF02F002C09A
:1013A00003F0026A0B0EDB5000010224006E000EF7
:1013B0000320016E00019051001802E191510118C3
:1013C00001E084D0D950010FE96EDACFEAFF010EB7
:1013D000EE1801E1ED5001E1FF00D950010FE96E77
:1013E000DACFEAFF060EEE1801E1ED506FE1080ECC
:1013F000DBCF00F000C001F0006A070EDB500001F7
:101400000024906F000E0120916F090EDBCF92F047
:10141000080EDBCFE6FF010EE66EE66AD8EC0CF0B4
:10142000E552E552E552070EDBCFE6FF020EE66E0F
:10143000E66AD8EC0CF0E552E552E552090EDBCF36
:10144000E6FF030EE66EE66AD8EC0CF0E552E552D4
:10145000E5522A0EE66E000EE66EE66AD8EC0CF057
:10146000E552E552E5520001646B040E0001656F20
:10147000666B0001080E6A6F00016F6B020EE66E6C
:1014800064C0E6FF65C0E6FF66C0E6FF67C0E6FF32
:1014900068C0E6FF69C0E6FF6AC0E6FF6BC0E6FF12
:1014A0006CC0E6FF6DC0E6FF6EC0E6FF6FC0E6FFF2
:1014B00070C0E6FF71C0E6FF72C0E6FF39D8006E6B
:1014C000100EE15E0050000901E1D8D7D9CFE9FF45
:1014D000DACFEAFFEECFE6FFEECFE6FFEECFE6FF94
:1014E000EECFE6FFEECFE6FFEECFE6FFEECFE6FF74
:1014F000EECFE6FFEECFE6FFEECFE6FFEECFE6FF64
:10150000EECFE6FFEECFE6FFEECFE6FFEECFE6FF53
:10151000A4EC0CF0006E0F0EE15E00500F0EE15CCB
:1015200002E2E16AE552E16EE552E7CFD9FF12002F
:10153000D9CFE6FFE1CFD9FF0F0140B704D0000EAD
:1015400077140309776E0F0130B704D0000E7714BB
:101550000409776E0F0120B705D0000E7714050936
:10156000776E02D0000EB9D0EF0EDBCF00F0003462
:101570000EE2EF0EDBCF01F0030EE76E0118E8AECE
:1015800002D0013403D0E750D880015402E2EF0EBC
:10159000DB6AF30E92C0DBFFF40E90C0DBFFF50EAA
:1015A00091C0DBFFF10EDBCF00F0F20EDBCF01F0DC
:1015B000C00E0016030E0116060ED890013200323E
:1015C000E804FBE1F00EDB500F0B100DF35000248C
:1015D000616E060EE76EF10EDBCF02F0F20EDBCF8E
:1015E00003F0E7500216036AD890033202323F0E2E
:1015F000E76EF10EDBCF00F0F20EDBCF01F0E7502B
:101600000016016AD89000360136D89000360136AF
:1016100000500224626EF40EDBCF02F0F50EDBCF39
:1016200003F0000E0216010E031603C002F0036A57
:10163000010EE76EF10EDBCF00F0F20EDBCF01F012
:10164000E7500016016A070ED89000360136E8040C
:10165000FBE1F30EDB503F0BE82400240224636E11
:10166000FF0EE76EF40EDBCF00F0F50EDBCF01F0DE
:10167000E7500016016A0050646E656AF60EDB5092
:10168000080803E2080E656E03D0F60EDB50656EA7
:10169000659CF70EDB50666EF80EDB50676EF90E38
:1016A000DB50686EFA0EDB50696EFB0EDB506A6E23
:1016B000FC0EDB506B6EFD0EDB506C6EFE0EDB50D5
:1016C0006D6E6286EF0EDBCFE6FFFC0E6014E55216
:1016D000E710606E6086010E00D0E552E7CFD9FFBB
:0216E0001200F6
:0E16E200D9CFE6FFE1CFD9FF0F0EE12625D9C3
:1016F00028EC08F08050100B01E0010E0001805D25
:1017000049E08050100B01E0010E806F010EDF6E8A
:10171000200EF36E010EF3CFDBFF020EDB6A010E2B
:10172000F36E060EF3CFDBFF800502E1000E01D061
:10173000010EE76E070EE7CFDBFF020EE66ED9CF94
:10174000E9FFDACFEAFFEECFE6FFEECFE6FFEECF1E
:10175000E6FFEECFE6FFEECFE6FFEECFE6FFEECF01
:10176000E6FFEECFE6FFEECFE6FFEECFE6FFEECFF1
:10177000E6FFEECFE6FFEECFE6FFEECFE6FFEECFE1
:10178000E6FF98EC0AF0006E100EE15E00500009D2
:1017900001E1D3D78050200B01E0010E0001815DF3
:1017A00049E08050200B01E0010E816F010EDF6ED9
:1017B000210EF36E010EF3CFDBFF020EDB6A010E8A
:1017C000F36E060EF3CFDBFF810502E1000E01D0C0
:1017D000010EE76E070EE7CFDBFF020EE66ED9CFF4
:1017E000E9FFDACFEAFFEECFE6FFEECFE6FFEECF7E
:1017F000E6FFEECFE6FFEECFE6FFEECFE6FFEECF61
:10180000E6FFEECFE6FFEECFE6FFEECFE6FFEECF50
:10181000E6FFEECFE6FFEECFE6FFEECFE6FFEECF40
:10182000E6FF98EC0AF0006E100EE15E0050000931
:1018300001E1D3D762EC0DF000017751125C006E2C
:1018400078511358016E79511458026E7A51155817
:10185000036ED880640E0054000E0154000E025432
:10186000000E03540BE2827262EC0DF012C077F0AE
:1018700013C078F014C079F015C07AF03BD70F0E82
:10188000E15C02E2E16AE552E16EE552E7CFD9FFA1
:101890001200DACFE4FFE2CFDAFFE9CFE4FFEACFCC
:1018A000E4FFF6CFE4FFF7CFE4FFF5CFE4FFF3CF9B
:1018B000E4FFF4CFE4FFFACFE4FF00EE0EF00B0EEE
:1018C000E80403E3EECFE4FFFBD700EE00F00E0EDA
:1018D000E80403E3EECFE4FFFBD7E652ADEC08F0FB
:1018E000E55200EE0DF00E0EE80403E3E5CFEDFF48
:1018F000FBD700EE18F00B0EE80403E3E5CFEDFF95
:10190000FBD7E5CFFAFFE5CFF4FFE5CFF3FFE5CF57
:10191000F5FFE5CFF7FFE5CFF6FFE5CFEAFFE5CF2F
:10192000E9FFE5CFDAFF1100DACFE4FFE2CFDAFF1B
:10193000E652E552E5CFDAFF110094929288928A3E
:10194000F28EF28CD08E1200D9CFE6FFE1CFD9FF14
:101950000F0EE126E15C02E2E16AE552E16EE5523A
:06196000E7CFD9FF1200E1
:0A196600D9CFE6FFE1CFD9FFFD0E57
:10197000DBCF00F0FE0EDBCF01F001C000F0016A0A
:101980000050AA6EFF0EE76EFD0EDBCF00F0FE0EDC
:10199000DBCF01F0E7500016016A0050A96EA69E49
:1019A000A69CA680A85000D0E552E7CFD9FF120030
:1019B000D9CFE6FFE1CFD9FFA198FD0EDBCF00F034
:1019C000FE0EDBCF01F001C000F0016A0050AA6EEC
:1019D000FF0EE76EFD0EDBCF00F0FE0EDBCF01F059
:1019E000E7500016016A0050A96EFC0EDB50A86E8D
:1019F000A69EA69CA684F29E550EA76EAA0EA76E62
:101A0000A682F28EA1A8FED7A694E552E7CFD9FF11
:021A10001200C2
:0E1A12002A0EF66E100EF76E000EF86E000132
:101A20000900F550876F0900F550886F03E187675B
:101A300001D03DD00900F550826F0900F550836F49
:101A40000900F550846F09000900F550E96E09009E
:101A5000F550EA6E090009000900F550856F09008C
:101A6000F550866F09000900F6CF89F0F7CF8AF0AC
:101A7000F8CF8BF082C0F6FF83C0F7FF84C0F8FF79
:101A80000001855302E1865307E00900F550EE6E30
:101A90008507F8E28607F9D789C0F6FF8AC0F7FF05
:101AA0008BC0F8FF00018707000E885BBFD71200CC
:101AB000790ED66EFE0ED76E070ED56ED58EF284D9
:101AC000F28A12008CC012F08DC013F08EC014F098
:101AD0008FC015F000D01200F2A40BD0FE0ED76E0E
:101AE000790ED66E00018C2B000E8D238E238F2352
:041AF000F29412005A
:0C1AF4001CEE00F02CEE00F0F86A189CCC
:0C1B000009EC0DF071EC0BF0FDD71200A9
:041B0C0000000000D5
:0F1B1000000000000000000000000000000000C6
:011B1F00784D
:021B20000000C3
:00000001FF
