:020000040000FA
:06000000C7EF0DF0120035
:06100000C7EF0DF0120025
:06100800F5EF09F01200F3
:0610180043EF0AF0120094
:06102A000200AA1B0000F9
:101030006000000016000000A61B000080000000F9
:0410400004000000A8
:0C104400D9CFE6FFE1CFD9FF0F0EE12667
:1010500023DA1AEC0BF0A5EC0DF0000EE66EE66A52
:1010600000EC0DF0E552E5522A082BE1010EE66E88
:10107000E66A00EC0DF0E552E552006E00C001F0AA
:10108000006A00C0E6FF01C0E6FF020EE66EE66AF7
:1010900000EC0DF0E552E552E552E7CF01F0E552E4
:1010A000E7CF00F000010024606F000E0120616FA7
:1010B000030EE66EE66A00EC0DF0E552E552000123
:1010C000626FDF6A080EF36E010EF3CFDBFF020ED4
:1010D000DB6A030E62C0DBFF040E60C0DBFF050E9F
:1010E00061C0DBFF010EF36E060EF3CFDBFF010ED6
:1010F000F36E070EF3CFDBFF020EE66ED9CFE9FFEA
:10110000DACFEAFFEECFE6FFEECFE6FFEECFE6FF67
:10111000EECFE6FFEECFE6FFEECFE6FFEECFE6FF47
:10112000EECFE6FFEECFE6FFEECFE6FFEECFE6FF37
:10113000EECFE6FFEECFE6FFEECFE6FFEECFE6FF27
:1011400030EC0CF0006E100EE15E0050000901E181
:10115000D3D78050100B01E0010E0001745D52E006
:101160008050100B01E0010E746F010EDF6E200E37
:10117000F36E010EF3CFDBFF020EDB6A030E62C0DB
:10118000DBFF040E60C0DBFF050E61C0DBFF010E5C
:10119000F36E060EF3CFDBFF740502E1000E01D003
:1011A000010EE76E070EE7CFDBFF020EE66ED9CF2A
:1011B000E9FFDACFEAFFEECFE6FFEECFE6FFEECFB4
:1011C000E6FFEECFE6FFEECFE6FFEECFE6FFEECF97
:1011D000E6FFEECFE6FFEECFE6FFEECFE6FFEECF87
:1011E000E6FFEECFE6FFEECFE6FFEECFE6FFEECF77
:1011F000E6FF30EC0CF0006E100EE15E00500009CE
:1012000001E1D3D78050200B01E0010E0001755D94
:1012100052E08050200B01E0010E756F010EDF6E71
:10122000210EF36E010EF3CFDBFF020EDB6A030E1D
:1012300062C0DBFF040E60C0DBFF050E61C0DBFF98
:10124000010EF36E060EF3CFDBFF750502E1000E13
:1012500001D0010EE76E070EE7CFDBFF020EE66E50
:10126000D9CFE9FFDACFEAFFEECFE6FFEECFE6FF18
:10127000EECFE6FFEECFE6FFEECFE6FFEECFE6FFE6
:10128000EECFE6FFEECFE6FFEECFE6FFEECFE6FFD6
:10129000EECFE6FFEECFE6FFEECFE6FFEECFE6FFC6
:1012A000EECFE6FF30EC0CF0006E100EE15E005069
:1012B000000901E1D3D7AFEC0DF000016B51125CD6
:1012C000006E6C511358016E6D511458026E6E51C0
:1012D0001558036ED880F40E0054010E0154000E10
:1012E0000254000E035452E2DF6A080EF36E010E40
:1012F000F3CFDBFF020EDB6A030E62C0DBFF040EDE
:1013000060C0DBFF050E61C0DBFF010EF36E060E51
:10131000F3CFDBFF020EF36E070EF3CFDBFF020EFF
:10132000E66ED9CFE9FFDACFEAFFEECFE6FFEECFE8
:10133000E6FFEECFE6FFEECFE6FFEECFE6FFEECF25
:10134000E6FFEECFE6FFEECFE6FFEECFE6FFEECF15
:10135000E6FFEECFE6FFEECFE6FFEECFE6FFEECF05
:10136000E6FFEECFE6FF30EC0CF0006E100EE15E13
:101370000050000901E1D3D7AFEC0DF012C06BF0C3
:1013800013C06CF014C06DF015C06EF0AFEC0DF032
:1013900000016751125C006E68511358016E69516B
:1013A0001458026E6A511558036ED880640E0054AA
:1013B000000E0154000E0254000E03540BE2827220
:1013C000AFEC0DF012C067F013C068F014C069F004
:1013D00015C06AF0BED60F0EE15C02E2E16AE5528A
:1013E000E16EE552E7CFD9FF1200DACFE4FFE2CF9A
:1013F000DAFFE9CFE4FFEACFE4FFF6CFE4FFF7CF6F
:10140000E4FFF5CFE4FFF3CFE4FFF4CFE4FFFACF3E
:10141000E4FF00EE0EF00B0EE80403E3EECFE4FF72
:10142000FBD700EE00F00E0EE80403E3EECFE4FF7E
:10143000FBD7E652040045EC0BF0B9EC0DF0E55299
:1014400000EE0DF00E0EE80403E3E5CFEDFFFBD751
:1014500000EE18F00B0EE80403E3E5CFEDFFFBD739
:10146000E5CFFAFFE5CFF4FFE5CFF3FFE5CFF5FFDA
:10147000E5CFF7FFE5CFF6FFE5CFEAFFE5CFE9FFE0
:10148000E5CFDAFF1100DACFE4FFE2CFDAFFE65270
:10149000E552E5CFDAFF110094929288928AF28E9B
:1014A000F28CD08E1200D9CFE6FFE1CFD9FF0F0E1C
:1014B000E1260400F00EDB5001E0B2D0F30EDB5069
:1014C0000001625D01E0ABD0FC0EDBCF02F002C098
:1014D00003F0026AFB0EDB5000010224006E000ED6
:1014E0000320016E00016051001802E161510118F2
:1014F00001E095D0F10EDBCF14F0F20EDBCF15F04A
:10150000060E141801E1155008E0010E141801E14F
:10151000155001E084D0FF0082D0F80EDBCF00F040
:1015200000C001F0006AF70EDB5000010024606F7C
:10153000000E0120616FF90EDBCF62F0F80EDBCFF9
:10154000E6FF010EE66EE66A25EC0DF0E552E55287
:10155000E552F70EDBCFE6FF020EE66EE66A25ECFB
:101560000DF0E552E552E552F90EDBCFE6FF030E32
:10157000E66EE66A25EC0DF0E552E552E5522A0EDC
:10158000E66E000EE66EE66A25EC0DF0E552E552D9
:10159000E552DF6A040EF36E010EF3CFDBFF020E9D
:1015A000DB6A030E62C0DBFF040E60C0DBFF050ECA
:1015B00061C0DBFF080EF36E060EF3CFDBFF0B0EF0
:1015C000DB6A020EE66ED9CFE9FFDACFEAFFEECF93
:1015D000E6FFEECFE6FFEECFE6FFEECFE6FFEECF83
:1015E000E6FFEECFE6FFEECFE6FFEECFE6FFEECF73
:1015F000E6FFEECFE6FFEECFE6FFEECFE6FFEECF63
:10160000E6FFEECFE6FFEECFE6FF30EC0CF0006E2B
:10161000100EE15E0050000901E1D3D700D000D0E8
:101620000F0EE15C02E2E16AE552E16EE552E7CFBE
:04163000D9FF1200CC
:0C163400800E6F6EE00E6E14800801E066
:10164000FBD7706A709E708C040E7010706E718E75
:10165000719A71987186719471927180729E729C68
:10166000729472927280776A778E779C608C609A9F
:101670000D01FC6BA46A030EA36EA56EFA696F6A76
:10168000E00E6E1401E0FCD71200A450020B06E13C
:10169000A450020B03E1A450010B16E00F0E6F14CF
:1016A0001009006E000E77140010776E60BE0DD822
:1016B000A4A202D0A49208D0A4A202D0A49204D0E2
:1016C000A4A002D0A49000D01200D9CFE6FFE1CFB1
:1016D000D9FF0F0EE126F00E6114E8380F0BDF6E14
:1016E0000F0E6114066E076A060ED890063607368E
:1016F000E804FBE1E00E6214086E096AD890093232
:101700000832D8900932083206500824046E075077
:101710000920056E030E62140A6E0B6AD8900A3611
:101720000B3604500A24026E05500B20036E800E07
:1017300063140C6E0D6A070ED8900D320C32E8045B
:10174000FBE102500C24006E03500D20016E010ECF
:1017500000C0DBFF020E01C0DBFF7E0E6314E84019
:101760007F0BE76E030EE7CFDBFF010E6314026E03
:1017700002C003F0026A645000010224006E000EF1
:101780000320016E040E00C0DBFF050E01C0DBFF6D
:101790006550010B026E6550020B01E0010EE8245A
:1017A000016E6550040B01E0010E040DF3CF00F053
:1017B0006550080B01E0010E080DF35000240124D0
:1017C0000224E76E060EE7CFDBFF070E66CFDBFFD6
:1017D000080E67CFDBFF090E68CFDBFF0A0E69CF6B
:1017E000DBFF0B0E6ACFDBFF0C0E6BCFDBFF0D0EAA
:1017F0006CCFDBFF0E0E6DCFDBFF609ED9CFE9FF14
:10180000DACFEAFFEECFE6FFEECFE6FFEECFE6FF60
:10181000EECFE6FFEECFE6FFEECFE6FFEECFE6FF40
:10182000EECFE6FFEECFE6FFEECFE6FFEECFE6FF30
:10183000EECFE6FFEECFE6FFEECFE6FFEECFE6FF20
:1018400053EC0AF0006E0F0EE15E00500F0EE15CEB
:1018500002E2E16AE552E16EE552E7CFD9FF1200FC
:10186000D9CFE6FFE1CFD9FF0F0140B704D0000E7A
:1018700077140309776E0F0130B704D0000E771488
:101880000409776E0F0120B705D0000E7714050903
:10189000776E02D0000EB0D0EF0EDBCF00F0003438
:1018A0000EE2EF0EDBCF01F0030EE76E0118E8AE9B
:1018B00002D0013403D0E750D880015402E2EF0E89
:1018C000DB6AF10EDBCF00F0F20EDBCF01F0C00ED1
:1018D0000016030E0116060ED89001320032E804FD
:1018E000FBE1F00EDB500F0B100DF3500024616E86
:1018F000060EE76EF10EDBCF02F0F20EDBCF03F047
:10190000E7500216036AD890033202323F0EE76EA8
:10191000F10EDBCF00F0F20EDBCF01F0E750001646
:10192000016AD89000360136D89000360136005052
:101930000224626EF40EDBCF02F0F50EDBCF03F073
:10194000000E0216010E031603C002F0036A010E18
:10195000E76EF10EDBCF00F0F20EDBCF01F0E750C7
:101960000016016A070ED89000360136E804FBE144
:10197000F30EDB503F0BE82400240224636EFF0EBD
:10198000E76EF40EDBCF00F0F50EDBCF01F0E75091
:101990000016016A0050646E656AF60EDB50080896
:1019A00003E2080E656E03D0F60EDB50656E659C93
:1019B000F70EDB50666EF80EDB50676EF90EDB50EB
:1019C000686EFA0EDB50696EFB0EDB506A6EFC0E21
:1019D000DB506B6EFD0EDB506C6EFE0EDB506D6EE1
:1019E0006286EF0EDBCFE6FFFC0E6014E552E710D7
:1019F000606E6086010E00D0E552E7CFD9FF12007D
:101A0000D9CFE6FFE1CFD9FFFD0EDBCF00F0FE0E10
:101A1000DBCF01F001C000F0016A0050AA6EFF0E9A
:101A2000E76EFD0EDBCF00F0FE0EDBCF01F0E750DE
:101A30000016016A0050A96EA69EA69CA680A8501A
:101A400000D0E552E7CFD9FF1200D9CFE6FFE1CFB2
:101A5000D9FFA198FD0EDBCF00F0FE0EDBCF01F029
:101A600001C000F0016A0050AA6EFF0EE76EFD0E85
:101A7000DBCF00F0FE0EDBCF01F0E7500016016A6D
:101A80000050A96EFC0EDB50A86EA69EA69CA684F4
:101A9000F29E550EA76EAA0EA76EA682F28EA1A880
:0C1AA000FED7A694E552E7CFD9FF120054
:041AAC002A0EF66E9A
:101AB000100EF76E000EF86E00010900F5507B6FF6
:101AC0000900F5507C6F03E17B6701D03DD0090030
:101AD000F550766F0900F550776F0900F550786F73
:101AE00009000900F550E96E0900F550EA6E090099
:101AF00009000900F550796F0900F5507A6F090067
:101B00000900F6CF7DF0F7CF7EF0F8CF7FF076C0FA
:101B1000F6FF77C0F7FF78C0F8FF0001795302E1C4
:101B20007A5307E00900F550EE6E7907F8E27A077C
:101B3000F9D77DC0F6FF7EC0F7FF7FC0F8FF000138
:0A1B40007B07000E7C5BBFD712008C
:061B4A00790ED66EFE0EBE
:101B5000D76E070ED56ED58EF284F28A120080C041
:101B600012F081C013F082C014F083C015F000D0D1
:101B70001200F2A40BD0FE0ED76E790ED66E0001C5
:0E1B8000802B000E812382238323F294120017
:021B8E001CEE4B
:101B900000F02CEE00F0F86A189C56EC0DF022ECE8
:061BA00008F0FDD7120061
:041BA600000000003B
:061BAA00780000000000BD
:101BB0000000000000000000000000000000000025
:00000001FF
