:020000040000FA
:06000000D4EF05F0120030
:0600080004EF08F01200F5
:060018000CEF08F01200DD
:06002A000100C00B000004
:08003000B10000001B000000FC
:08003800D9CFE6FFE1CFD9FFAB
:10004000180EE1268EDB93DB7BEC05F010C0DEFFA3
:1000500011C0DEFF12C0DEFF13C0DDFFDD52DD5236
:10006000AFDBE76E150EE7CFDBFF0001BA2B000E0A
:10007000BB23BC23BD23D880380E0001BA55010E26
:10008000BB55000EBC55000EBD550BE20001B62B52
:10009000000EB723B823B9230001BA6BBB6BBC6B4E
:1000A000BD6B0001BE51050A01E14AD3010A01E11D
:1000B00099D2070A01E1ADD1010A01E102D1030A97
:1000C00001E1A7D0010A01E03ED3150EDB0461E196
:1000D000000160515EE10001010E611901E1625110
:1000E00058E1780E00016C5D54E10001635151E16B
:1000F0006AC000F0016A026A036A100E1F0B07E073
:10010000D8900036013602360336E806F9E169C0B8
:1001100004F0056A066A076A080E1F0B07E0D8900C
:100120000436053606360736E806F9E1045000269F
:1001300005500122065002220750032268C008F031
:10014000096A0A6A0B6A005008240001C76F01504F
:1001500009200001C86F02500A200001C96F035036
:100160000B200001CA6F64C0C3F065C0C4F07BEC13
:1001700005F010C0BFF011C0C0F012C0C1F013C034
:10018000C2F00001C56B0001020EC66F0001010E36
:10019000BE6FD9CFE9FFDACFEAFFEECF04F0EECFA2
:1001A00005F0EECF06F0EFCF07F004C0E6FF05C084
:1001B000E6FF06C0E6FF07C0E6FF7BEC05F0E55270
:1001C000E7CF07F0E552E7CF06F0E552E7CF05F0BD
:1001D000E552E7CF04F000010450105C006E00010E
:1001E00005501158016E000106501258026E0001B0
:1001F00007501358036ED880F40E0054010E0154BA
:10020000000E0254000E035403E20001050EBE6FFF
:100210009DD2050EDB6A040EF36E060EF3CFDBFFF4
:10022000070EDB6A080EDB6A780EF36E090EF3CF59
:10023000DBFF0A0EDB6A080EF36E0B0EF3CFDBFF5B
:100240000C0EDB6A110EC5C0DBFF7BEC05F010C0A5
:10025000BFF011C0C0F012C0C1F013C0C2F0C6C0E0
:10026000BEF0020EE66ED950050FE96EDACFEAFF56
:10027000EECFE6FFEECFE6FFEECFE6FFEECFE6FFF6
:10028000EECFE6FFEECFE6FFEECFE6FFEECFE6FFE6
:10029000EECFE6FFEECFE6FFEECFE6FFEECFE6FFD6
:1002A000EECFE6FFEECFE6FFEECFE6FFEECFE6FFC6
:1002B00047DB006E110EE15E0050000901E1D1D76D
:1002C00045D27BEC05F00001BF51105C006E0001CF
:1002D000C0511158016E0001C1511258026E000147
:1002E000C2511358036ED8800E0E0054000E0154F4
:1002F000000E0254000E035408E20001C56B000119
:10030000020EC66F0001010EBE6F150EDB0401E088
:100310007FD00001605101E07BD0030E0001611528
:10032000006E016A030E001801E1015071E1000145
:1003300063516EE10001C3510001641904E1000141
:10034000C4510001651964E11C0E00016115006EC5
:10035000016AD89001320032D89001320032080E82
:100360000002160EF3CFDBFF0001080ECB6F160E56
:10037000DB50EA6A700FE96E000EEA2268C0EFFFF8
:10038000160EDB28EA6A700FE96E000EEA2269C0D9
:10039000EFFF160EDB50020FEA6A700FE96E000ED7
:1003A000EA226AC0EFFF160EDB50030FEA6A700FF5
:1003B000E96E000EEA226BC0EFFF160EDB50040F51
:1003C000EA6A700FE96E000EEA226CC0EFFF160EAB
:1003D000DB50050FEA6A700FE96E000EEA226DC06D
:1003E000EFFF160EDB50060FEA6A700FE96E000E83
:1003F000EA226EC0EFFF160EDB50070FEA6A700F9D
:10040000E96E000EEA226FC0EFFF0001030EBE6F1F
:100410009DD1150EDB0401E07FD00001605101E0A9
:100420007BD0030E00016115006E016A030E0018F7
:1004300001E1015071E1000163516EE10001C3511E
:100440000001641904E10001C4510001651964E16F
:100450001C0E00016115006E016AD8900132003255
:10046000D89001320032080E0002170EF3CFDBFFE6
:10047000170EDB50EA6A700FE96E000EEA2268C0C0
:10048000EFFF170EDB28EA6A700FE96E000EEA2212
:1004900069C0EFFF170EDB50020FEA6A700FE96EBA
:1004A000000EEA226AC0EFFF170EDB50030FEA6A64
:1004B000700FE96E000EEA226BC0EFFF170EDB50E3
:1004C000040FEA6A700FE96E000EEA226CC0EFFFBB
:1004D000170EDB50050FEA6A700FE96E000EEA2274
:1004E0006DC0EFFF170EDB50060FEA6A700FE96E62
:1004F000000EEA226EC0EFFF170EDB50070FEA6A0C
:10050000700FE96E000EEA226FC0EFFF080E0001C7
:10051000CB270001030EBE6F150EDB041EE10001A8
:1005200060511BE10001020E611901E1625115E108
:100530000001635112E10001C3510001641904E19B
:100540000001C4510001651908E10001C56B0001FB
:10055000020EC66F0001010EBE6F150EDB0436E100
:100560000001605133E10001050E611901E16251A2
:100570002DE1000163512AE10001C351000164191A
:1005800004E10001C4510001651920E10001CB51D3
:1005900009E10001C56B0001050EC66F0001010EE7
:1005A000BE6F14D0400E0001CB5D0AE00001010EC9
:1005B000C56F0001020EC66F0001010EBE6F06D0AE
:1005C0000001040EBE6F0001050EC66F400E000153
:1005D000CB5D07E182720001040EBE6F0001030EC5
:1005E000C66FB4D0000E0001C75D100EC859000ED2
:1005F000C959000ECA5906E20001010EC56F00017B
:10060000010EBE6FC7C000F0C8C001F0C9C002F043
:10061000CAC003F0006A016A036A100ED890033260
:10062000023201320032E806F9E10050F86EC7C02C
:1006300000F0C8C001F0C9C002F0CAC003F0006AEF
:10064000026A036A080ED890033202320132003285
:10065000E806F9E10050F76E0001C751F66EA68E6C
:10066000A69CA684A688F29E550EA76EAA0EA76E1B
:10067000A682F28EC7C000F0C8C001F0C9C002F067
:10068000CAC003F0006A016A036A100ED8900332F0
:10069000023201320032E806F9E10050F86EC7C0BC
:1006A00000F0C8C001F0C9C002F0CAC003F0006A7F
:1006B000026A036A080ED890033202320132003215
:1006C000E806F9E10050F76E0001C751F66E040E1E
:1006D000DB6A3F0EF36E040EDBCFF4FFF350F45CE5
:1006E0000DE2040EDB50EA6A700FE96E000EEA229A
:1006F000EF50F56EFED9040EDB2AEBD7AFC0F5FF45
:10070000F6D9A68EA69CA684F29E550EA76EAA0EBA
:10071000A76EA682F28EA694400E0001C727000E97
:100720000001C823000E0001C923000E0001CA23E6
:100730000001CB6B0001C56B0001010EBE6F06D03E
:1007400000EF08F003D00001BE6B00D089D4180E72
:10075000E15C02E2E16AE552E16EE552E7CFD9FFE2
:1007600012009492F19EF28EF28CD08E1200800EC6
:100770006F6EE00E6E14800801E0FBD7706A709E09
:10078000708C040E7010706E718E719A71987186F3
:10079000719471927180729E729C72947292728046
:1007A000776A779E778C608C609A0D01FC6BA46AE7
:1007B000A36AFA6B6F6AE00E6E1401E0FCD71200B8
:1007C00060AE05D0000E77141009776E35D00F019A
:1007D00050AF05D0000E77141109776E2DD00E01A1
:1007E00020AF05D0000E77141209776E25D030AFF8
:1007F00005D0000E77141309776E1ED040AF05D0D8
:10080000000E77141409776E17D050AF05D0000E84
:1008100077141509776E10D060AF05D0000E7714ED
:100820001609776E09D070AF05D0000E771417093E
:10083000776E02D0000E83D0F00E6114E8380F0BF3
:100840000001606F0F0E6114046E056A060ED890E9
:1008500004360536E804FBE1E00E6214066E076A12
:10086000D89007320632D890073206320450062458
:10087000026E05500720036E030E6214086E096AAB
:10088000D8900836093602500824006E035009201B
:10089000016E800E63140A6E0B6A070ED8900B323D
:1008A0000A32E804FBE100500A240001616F0150A4
:1008B0000B20626F7E0E6314E8407F0B636F010EA6
:1008C0006314006E00C001F0006A64500024646F7D
:1008D000000E0120656F6550010B026E6550020B22
:1008E00001E0010EE824016E6550040B01E0010EE9
:1008F000040DF3CF00F06550080B01E0010E080D68
:10090000F350002401240224666F6550400B02E17D
:10091000000E01D0010E676F66CF68F067CF69F0F7
:1009200068CF6AF069CF6BF06ACF6CF06BCF6DF077
:100930006CCF6EF06DCF6FF0609E010E00D0120094
:10094000D9CFE6FFE1CFD9FF0F0140B704D0000EA9
:1009500077140309776E0F0130B704D0000E7714B7
:100960000409776E0F0120B705D0000E7714050932
:10097000776E02D0000EB5D0EE0EDBCF00F0003463
:100980000EE2EE0EDBCF01F0030EE76E0118E8AECB
:1009900002D0013403D0E750D880015402E2EE0EB9
:1009A000DB6AF00EDBCF00F0F10EDBCF01F0C00E02
:1009B0000016030E0116060ED89001320032E8042C
:1009C000FBE1EF0EDB500F0B100DF3500024616EB6
:1009D000060EE76EF00EDBCF02F0F10EDBCF03F078
:1009E000E7500216036AD890033202323F0EE76ED8
:1009F000F00EDBCF00F0F10EDBCF01F0E750001678
:100A0000016AD89000360136D89000360136005081
:100A10000224626EF30EDBCF02F0F40EDBCF03F0A4
:100A2000000E0216010E031603C002F0036A010E47
:100A3000E76EF00EDBCF00F0F10EDBCF01F0E750F8
:100A40000016016A070ED89000360136E804FBE173
:100A5000F20EDB503F0BE82400240224636EFF0EED
:100A6000E76EF30EDBCF00F0F40EDBCF01F0E750C2
:100A70000016016A0050646E656AF50EDB500808C6
:100A800003E2080E656E03D0F50EDB50656EF60EC0
:100A9000DB0402E1658C01D0659CF70EDB50666ECD
:100AA000F80EDB50676EF90EDB50686EFA0EDB5005
:100AB000696EFB0EDB506A6EFC0EDB506B6EFD0E3A
:100AC000DB506C6EFE0EDB506D6E6286EE0EDBCF81
:100AD000E6FFFC0E6014E552E710606E6086010EC2
:100AE00000D0E552E7CFD9FF1200080012000C0039
:100AF00012000D001200B6C010F0B7C011F0B8C05F
:0A0B000012F0B9C013F000D012008B
:060B0A002A0EF66E000E3B
:100B1000F76E000EF86E00010900F550D16F090064
:100B2000F550D26F03E1D16701D03DD00900F550F7
:100B3000CC6F0900F550CD6F0900F550CE6F09005C
:100B40000900F550E96E0900F550EA6E0900090048
:100B50000900F550CF6F0900F550D06F090009006A
:100B6000F6CFD3F0F7CFD4F0F8CFD5F0CCC0F6FF66
:100B7000CDC0F7FFCEC0F8FF0001CF5302E1D05344
:100B800007E00900F550EE6ECF07F8E2D007F9D77D
:100B9000D3C0F6FFD4C0F7FFD5C0F8FF0001D107DE
:080BA000000ED25BBFD712006A
:080BA8001CEE00F02CEE00F041
:100BB000F86A169C85EC05F01CEC00F0FDD71200DD
:100BC0000000000000000000000000000000000025
:0B0BD00000000000000000000000001A
:00000001FF
