:020000040000FA
:0600000039EF06F01200CA
:0600080004EF08F01200F5
:060018000CEF08F01200DD
:06002A0001008A0C000039
:08003000AF0000001D000000FC
:08003800D9CFE6FFE1CFD9FFAB
:10004000170EE126D9DBDEDB8AEC05F010C0DEFFFF
:1000500011C0DEFF12C0DEFF13C0DDFFDD52DD5236
:10006000000EE66EE66A94EC05F0E552E5522A08C9
:100070002BE1010EE66EE66A94EC05F0E552E552DE
:10008000006E00C001F0006A00C0E6FF01C0E6FF9C
:10009000020EE66EE66A94EC05F0E552E552E55292
:1000A000E7CF01F0E552E7CF00F000010024BB6F7D
:1000B000000E0120BC6F030EE66EE66A94EC05F0BC
:1000C000E552E5520001BD6FC6DBE76E140EE7CFC7
:1000D000DBFF0001B72B000EB823B923BA23D88069
:1000E000380E0001B755010EB855000EB955000E77
:1000F000BA550CE20001B32B000EB423B523B6238E
:100100000001B76BB86BB96BBA6B04000001BE514C
:10011000050A01E160D3010A01E1AED2070A01E15B
:10012000BCD1010A01E110D1030A01E1B9D0010AF1
:1001300001E054D3140EDB0473E10001605170E15F
:100140000001010E611901E162516AE16CC002F027
:1001500002C003F0026A00016B5100010224006E2C
:10016000000E0320016E0001BB51001802E1BC51DA
:10017000011856E10001BD510001635D51E169C004
:1001800000F0016A026A036A100E1F0B07E0D890A4
:100190000036013602360336E806F9E168C004F09D
:1001A000056A066A076A080E1F0B07E0D890043636
:1001B000053606360736E806F9E1045000260550F4
:1001C0000122065002220750032267C008F0096A84
:1001D0000A6A0B6A005008240001C76F0150092009
:1001E0000001C86F02500A200001C96F03500B20A4
:1001F0000001CA6F64C0C3F065C0C4F08AEC05F0AA
:1002000010C0BFF011C0C0F012C0C1F013C0C2F0E6
:100210000001C56B0001020EC66F0001010EBE6F2A
:10022000D9CFE9FFDACFEAFFEECF04F0EECF05F049
:10023000EECF06F0EFCF07F004C0E6FF05C0E6FF03
:1002400006C0E6FF07C0E6FF8AEC05F0E552E7CFFF
:1002500007F0E552E7CF06F0E552E7CF05F0E552AB
:10026000E7CF04F000010450105C006E000105505F
:100270001158016E000106501258026E000107501D
:100280001358036ED880F40E0054010E0154000E72
:100290000254000E035403E20001050EBE6FA1D20A
:1002A000050EDB6A040EF36E060EF3CFDBFF070EBE
:1002B000DB6A080EBDC0DBFF090EBBC0DBFF0A0E08
:1002C000BCC0DBFF080EF36E0B0EF3CFDBFF100E8E
:1002D000C5C0DBFF8AEC05F010C0BFF011C0C0F054
:1002E00012C0C1F013C0C2F0C6C0BEF0020EE66E6E
:1002F000D950050FE96EDACFEAFFEECFE6FFEECF79
:10030000E6FFEECFE6FFEECFE6FFEECFE6FFEECF65
:10031000E6FFEECFE6FFEECFE6FFEECFE6FFEECF55
:10032000E6FFEECFE6FFEECFE6FFEECFE6FFEECF45
:10033000E6FFEECFE6FF18DB006E100EE15E005028
:10034000000901E1D3D74DD2E5DB0001BF51105CBC
:10035000006E0001C0511158016E0001C1511258C8
:10036000026E0001C2511358036ED8800E0E005465
:10037000000E0154000E0254000E035408E2000166
:10038000C56B0001020EC66F0001010EBE6F140E98
:10039000DB0401E081D00001605101E07DD0030E5B
:1003A00000016115006E016A030E001801E10150A1
:1003B00073E10001BD510001635D6EE10001C351B5
:1003C0000001641904E10001C4510001651964E1F0
:1003D0001C0E00016115006E016AD89001320032D6
:1003E000D89001320032080E0002150EF3CFDBFF69
:1003F0000001080ECB6F150EDB50EA6A6F0FE96E35
:10040000000EEA2267C0EFFF150EDB28EA6A6F0FC5
:10041000E96E000EEA2268C0EFFF150EDB50020FF6
:10042000EA6A6F0FE96E000EEA2269C0EFFF150E4F
:10043000DB50030FEA6A6F0FE96E000EEA226AC012
:10044000EFFF150EDB50040FEA6A6F0FE96E000E26
:10045000EA226BC0EFFF150EDB50050FEA6A6F0F43
:10046000E96E000EEA226CC0EFFF150EDB50060F9E
:10047000EA6A6F0FE96E000EEA226DC0EFFF150EFB
:10048000DB50070FEA6A6F0FE96E000EEA226EC0BA
:10049000EFFF0001030EBE6FA4D1140EDB0401E0D8
:1004A00081D00001605101E07DD0030E0001611593
:1004B000006E016A030E001801E1015073E10001B2
:1004C000BD510001635D6EE10001C351000164197B
:1004D00004E10001C4510001651964E11C0E000132
:1004E0006115006E016AD89001320032D890013255
:1004F0000032080E0002160EF3CFDBFF160EDB50A3
:10050000EA6A6F0FE96E000EEA2267C0EFFF160E6F
:10051000DB28EA6A6F0FE96E000EEA2268C0EFFF7F
:10052000160EDB50020FEA6A6F0FE96E000EEA2228
:1005300069C0EFFF160EDB50030FEA6A6F0FE96E1A
:10054000000EEA226AC0EFFF160EDB50040FEA6AC3
:100550006F0FE96E000EEA226BC0EFFF160EDB5044
:10056000050FEA6A6F0FE96E000EEA226CC0EFFF1A
:10057000160EDB50060FEA6A6F0FE96E000EEA22D4
:100580006DC0EFFF160EDB50070FEA6A6F0FE96EC2
:10059000000EEA226EC0EFFF080E0001CB2700011B
:1005A000030EBE6F140EDB0420E1000160511DE15B
:1005B0000001020E611901E1625117E10001BD5114
:1005C0000001635D12E10001C3510001641904E1FF
:1005D0000001C4510001651908E10001C56B00016B
:1005E000020EC66F0001010EBE6F140EDB0438E16F
:1005F0000001605135E10001050E611901E1625110
:100600002FE10001BD510001635D2AE10001C351EA
:100610000001641904E10001C4510001651920E1E1
:100620000001CB5109E10001C56B0001050EC66F49
:100630000001010EBE6F14D0400E0001CB5D0AE038
:100640000001010EC56F0001020EC66F0001010E10
:10065000BE6F06D00001040EBE6F0001050EC66F0E
:10066000400E0001CB5D07E182720001040EBE6FF7
:100670000001030EC66FB5D00400000E0001C75D77
:10068000100EC859000EC959000ECA5906E20001E1
:10069000010EC56F0001010EBE6FC7C000F0C8C0DB
:1006A00001F0C9C002F0CAC003F0006A016A036A1F
:1006B000100ED8900332023201320032E806F9E11E
:1006C0000050F86EC7C000F0C8C001F0C9C002F009
:1006D000CAC003F0006A026A036A080ED8900332A7
:1006E000023201320032E806F9E10050F76E0001F3
:1006F000C751F66EA68EA69CA684A688F29E550EBD
:10070000A76EAA0EA76EA682F28EC7C000F0C8C060
:1007100001F0C9C002F0CAC003F0006A016A036AAE
:10072000100ED8900332023201320032E806F9E1AD
:100730000050F86EC7C000F0C8C001F0C9C002F098
:10074000CAC003F0006A026A036A080ED890033236
:10075000023201320032E806F9E10050F76E000182
:10076000C751F66E040EDB6A3F0EF36E040EDBCF4C
:10077000F4FFF350F45C0DE2040EDB50EA6A6F0FF5
:10078000E96E000EEA22EF50F56EC2D9040EDB2AA4
:10079000EBD7AEC0F5FFBAD9A68EA69CA684F29E72
:1007A000550EA76EAA0EA76EA682F28EA694400ED4
:1007B0000001C727000E0001C823000E0001C92355
:1007C000000E0001CA230001CB6B0001C56B0001C4
:1007D000010EBE6F06D000EF08F003D00001BE6B23
:1007E00000D072D4170EE15C02E2E16AE552E16EDC
:1007F000E552E7CFD9FF12009492F19EF28EF28C6F
:10080000D08E1200800E6F6EE00E6E14800801E034
:10081000FBD7706A709E708C040E7010706E718EB3
:10082000719A71987186719471927180729E729CA6
:10083000729472927280776A778E779C608C609ADD
:100840000D01FC6BA46AA36AFA6B6F6AE00E6E146A
:1008500001E0FCD712000F0E6F141009006E000E9D
:1008600077140010776E60BE02D0000E7CD0F00EC0
:100870006114E8380F0B0001606F0F0E6114046EF5
:10088000056A060ED89004360536E804FBE1E00E52
:100890006214066E076AD89007320632D890073283
:1008A000063204500624026E05500720036E030E24
:1008B0006214086E096AD890083609360250082476
:1008C000006E03500920016E800E63140A6E0B6ADD
:1008D000070ED8900B320A32E804FBE100500A24DC
:1008E0000001616F01500B20626F7E0E6314E840BF
:1008F0007F0B636F010E6314006E00C001F0006A8D
:1009000064500024646F000E0120656F6550010B78
:10091000026E6550020B01E0010EE824016E655085
:10092000040B01E0010E040DF3CF00F06550080B3D
:1009300001E0010E080DF350002401240224666F2B
:1009400066CF67F067CF68F068CF69F069CF6AF06B
:100950006ACF6BF06BCF6CF06CCF6DF06DCF6EF03B
:10096000609E010E00D01200D9CFE6FFE1CFD9FF83
:100970000F0140B704D0000E77140309776E0F0102
:1009800030B704D0000E77140409776E0F0120B73A
:1009900005D0000E77140509776E02D0000EB0D096
:1009A000EF0EDBCF00F000340EE2EF0EDBCF01F0F4
:1009B000030EE76E0118E8AE02D0013403D0E75011
:1009C000D880015402E2EF0EDB6AF10EDBCF00F0BB
:1009D000F20EDBCF01F0C00E0016030E0116060E5C
:1009E000D89001320032E804FBE1F00EDB500F0B2F
:1009F000100DF3500024616E060EE76EF10EDBCF92
:100A000002F0F20EDBCF03F0E7500216036AD89033
:100A1000033202323F0EE76EF10EDBCF00F0F20E32
:100A2000DBCF01F0E7500016016AD890003601369E
:100A3000D8900036013600500224626EF40EDBCFEF
:100A400002F0F50EDBCF03F0000E0216010E0316C6
:100A500003C002F0036A010EE76EF10EDBCF00F077
:100A6000F20EDBCF01F0E7500016016A070ED890B6
:100A700000360136E804FBE1F30EDB503F0BE824BF
:100A800000240224636EFF0EE76EF40EDBCF00F04D
:100A9000F50EDBCF01F0E7500016016A0050646EDE
:100AA000656AF60EDB50080803E2080E656E03D097
:100AB000F60EDB50656E659CF70EDB50666EF80E29
:100AC000DB50676EF90EDB50686EFA0EDB50696E14
:100AD000FB0EDB506A6EFC0EDB506B6EFD0EDB50C6
:100AE0006C6EFE0EDB506D6E6286EF0EDBCFE6FFA6
:100AF000FC0E6014E552E710606E6086010E00D0B7
:100B0000E552E7CFD9FF1200080012000C001200D6
:100B10000D001200B3C010F0B4C011F0B5C012F057
:080B2000B6C013F000D0120072
:080B2800D9CFE6FFE1CFD9FFB0
:100B3000FD0EDBCF00F0FE0EDBCF01F001C000F0B8
:100B4000016A0050AA6EFF0EE76EFD0EDBCF00F0CB
:100B5000FE0EDBCF01F0E7500016016A0050A96ECF
:100B6000A69EA69CA680A85000D0E552E7CFD9FF4C
:100B70001200D9CFE6FFE1CFD9FFA198FD0EDBCF60
:100B800000F0FE0EDBCF01F001C000F0016A005062
:100B9000AA6EFF0EE76EFD0EDBCF00F0FE0EDBCF80
:100BA00001F0E7500016016A0050A96EFC0EDB5000
:100BB000A86EA69EA69CA684F29E550EA76EAA0EAF
:100BC000A76EA682F28EA1A8FED7A694E552E7CF23
:040BD000D9FF120037
:0C0BD4002A0EF66E000EF76E000EF86E92
:100BE00000010900F550D16F0900F550D26F03E103
:100BF000D16701D03DD00900F550CC6F0900F55008
:100C0000CD6F0900F550CE6F09000900F550E96E6F
:100C10000900F550EA6E090009000900F550CF6F90
:100C20000900F550D06F09000900F6CFD3F0F7CFD7
:100C3000D4F0F8CFD5F0CCC0F6FFCDC0F7FFCEC0D2
:100C4000F8FF0001CF5302E1D05307E00900F5504F
:100C5000EE6ECF07F8E2D007F9D7D3C0F6FFD4C0C5
:100C6000F7FFD5C0F8FF0001D107000ED25BBFD758
:020C7000120070
:0E0C72001CEE00F02CEE00F0F86A169CEAEC86
:0A0C800005F01CEC00F0FDD7120097
:060C8A0000000000000064
:100C900000000000000078000000000000000000DC
:070CA000000000000000004D
:00000001FF
