:020000040000FA
:060000003EEF03F01200C8
:0600080079EF02F0120086
:06001800CEEF02F0120021
:02002A000000D4
:04002C00800E6F6E65
:10003000E00E6E14800801E0FBD7706A709E708C31
:10004000090E7010706E718E719A7198718671942C
:1000500071927180729E729C729472927280776AB1
:10006000779E778C608C609A0D01FC6BA46A030EFE
:10007000A36EA56EFA696F6AE00E6E1401E0FCD7FC
:100080001200A450020B06E1A450020B03E1A4509D
:10009000010B47E060AE06D0000E77141009776EB2
:1000A00041D839D00F0150AF06D0000E7714110996
:1000B000776E38D830D00E0120AF06D0000E7714FE
:1000C0001209776E2FD827D030AF06D0000E7714E4
:1000D0001309776E27D81FD040AF06D0000E7714D3
:1000E0001409776E1FD817D050AF06D0000E7714C2
:1000F0001509776E17D80FD060AF06D0000E7714B1
:100100001609776E0FD807D070AF05D0000E7714A0
:100110001709776E07D8A4B2A492A4B2A492A4B08F
:10012000A4901200D9CFE6FFE1CFD9FF0E0EE12651
:100130006250080B02E1000E01D0010EE76E040EC2
:10014000E7CFDBFFDE6ADE6ADE6ADD6ADD52DD52A2
:10015000DB046FE16150006E016A026A036A150EEA
:100160001F0B07E0D8900036013602360336E8064A
:10017000F9E1E00E6214046E056A066A076A0D0E64
:100180001F0B07E0D8900436053606360736E8061A
:10019000F9E10450002605500122065002220750C2
:1001A0000322030E6214086E096A0A6A0B6A100EB3
:1001B0001F0B07E0D890083609360A360B36E806DA
:1001C000F9E108500026095001220A5002220B5082
:1001D000032263500C6E0D6A0E6A0F6A080E1F0B25
:1001E00007E0D8900C360D360E360F36E806F9E1EA
:1001F0000C5000260D5001220E5002220F500322F7
:100200006450106E116A126A136A10500026115061
:100210000122125002221350032200C0DFFF010E00
:1002200001C0DBFF020E02C0DBFF030E03C0DBFFD9
:100230002FD06150006E016A026A036A030E1F0B21
:1002400007E0D8900036013602360336E806F9E1B9
:100250006250046E056A066A076A050ED890073276
:10026000063205320432E806F9E104500026055052
:100270000122065002220750032200C0DFFF010EB8
:1002800001C0DBFF020E02C0DBFF030E03C0DBFF79
:10029000050E65CFDBFF060E66CFDBFF070E67CFCF
:1002A000DBFF080E68CFDBFF090E69CFDBFF0A0E0C
:1002B0006ACFDBFF0B0E6BCFDBFF0C0E6CCFDBFFCF
:1002C0000D0E6DCFDBFF609ED9CFE9FFDACFEAFFDD
:1002D000EECFE6FFEECFE6FFEECFE6FFEECFE6FF96
:1002E000EECFE6FFEECFE6FFEECFE6FFEECFE6FF86
:1002F000EECFE6FFEECFE6FFEECFE6FFEECFE6FF76
:10030000EECFE6FFEECFE6FFE7EC02F0006E0E0E5A
:10031000E15E00500E0EE15C02E2E16AE552E16E40
:10032000E552E7CFD9FF1200D9CFE6FFE1CFD9FFE1
:100330000F0140B704D0000E77140309776E0F0148
:1003400030B704D0000E77140409776E0F0120B780
:1003500005D0000E77140509776E02D0000EC0D0CC
:10036000F50EDB045FE1F10EDBCF00F0F20EDBCF28
:1003700001F0F30EDBCF02F0F40EDBCF03F0150E2D
:10038000D8900332023201320032E806F9E100501F
:10039000616EF10EDBCF05F0F20EDBCF06F0F30E4F
:1003A000DBCF07F0F40EDBCF08F00D0ED89008324B
:1003B000073206320532E806F9E1E00E0514046E54
:1003C000F10EDBCF00F0F20EDBCF01F0F30EDBCF4E
:1003D00002F0F40EDBCF03F0100ED890033202329D
:1003E00001320032E806F9E1030E00140424626EC3
:1003F000F10EDBCF00F0F20EDBCF01F0F30EDBCF1E
:1004000002F0F40EDBCF03F0080ED8900332023274
:1004100001320032E806F9E10050636EF10EDB5064
:10042000646E2FD0F10EDBCF00F0F20EDBCF01F0C7
:10043000F30EDBCF02F0F40EDBCF03F0030ED89007
:100440000332023201320032E806F9E10050616EF7
:10045000F10EDBCF00F0F20EDBCF01F0F30EDBCFBD
:1004600002F0F40EDBCF03F0050E1F0B07E0D8906F
:100470000036013602360336E806F9E1E00E0014D4
:10048000626EF60EDB50080803E2080E656E03D0BC
:10049000F60EDB50656EF70EDB50666EF80EDB5025
:1004A000676EF90EDB50686EFA0EDB50696EFB0E5C
:1004B000DB506A6EFC0EDB506B6EFD0EDB506C6E1B
:1004C000FE0EDB506D6EF50EDB0402E1010E01D075
:1004D000000EE8B06286E8A062966086010E00D049
:0804E000E552E7CFD9FF12003D
:0804E8006CD816EC00F0FFD700
:1004F0001200D8CFE4FFE0CFE4FFE46EDACFE4FFF0
:10050000E2CFDAFFE9CFE4FFEACFE4FFF6CFE4FF82
:10051000F7CFE4FFF5CFE4FFF3CFE4FFF4CFE4FF40
:10052000FACFE4FF00EE14F0020EE80403E3EECF8E
:10053000E4FFFBD700EE00F0140EE80403E3EECF77
:10054000E4FFFBD7E65241EC00F0E55200EE13F079
:10055000140EE80403E3E5CFEDFFFBD700EE15F042
:10056000020EE80403E3E5CFEDFFFBD7E5CFFAFF8A
:10057000E5CFF4FFE5CFF3FFE5CFF5FFE5CFF7FFDC
:10058000E5CFF6FFE5CFEAFFE5CFE9FFE5CFDAFFFC
:10059000E550E5CFE0FFE5CFD8FF1000D8CFE4FF6E
:1005A000E0CFE4FFE46EDACFE4FFE2CFDAFFE65219
:1005B000E552E5CFDAFFE550E5CFE0FFE5CFD8FF24
:1005C00010009492F19EF28EF28CD08E1200D9CF50
:0E05D000E6FFE1CFD9FFE552E7CFD9FF1200D9
:0205DE002A0EE3
:1005E000F66E000EF76E000EF86E00010900F55071
:1005F000656F0900F550666F03E1656701D03DD076
:100600000900F550606F0900F550616F0900F55061
:10061000626F09000900F550E96E0900F550EA6EB5
:10062000090009000900F550636F0900F550646F77
:1006300009000900F6CF67F0F7CF68F0F8CF69F04E
:1006400060C0F6FF61C0F7FF62C0F8FF00016353AE
:1006500002E1645307E00900F550EE6E6307F8E22B
:100660006407F9D767C0F6FF68C0F7FF69C0F8FFF5
:0C06700000016507000E665BBFD712009A
:04067C001CEE00F080
:100680002CEE00F0F86A159CEFEC02F074EC02F02E
:04069000FDD7120080
:00000001FF
