:020000040000FA
:06000000B3EF0BF012004B
:06100000B3EF0BF012003B
:0610080076EF0AF0120071
:06101800C4EF0AF0120013
:06102A0002008217000025
:101030006A000000080000007E1700007200000037
:0410400004000000A8
:0C104400800E6F6EE00E6E14800801E05C
:10105000FBD7706A709E708C040E7010706E718E6B
:10106000719A71987186719471927180729E729C5E
:10107000729472927280776A778E779C608C609A95
:101080000D01FC6BA46A030EA36EA56EFA696F6A6C
:10109000E00E6E1401E0FCD71200A450020B06E132
:1010A000A450020B03E1A450010B16E00F0E6F14C5
:1010B0001009006E000E77140010776E60BE0DD818
:1010C000A4A202D0A49208D0A4A202D0A49204D0D8
:1010D000A4A002D0A49000D01200D9CFE6FFE1CFA7
:1010E000D9FF0F0EE126F00E6114E8380F0BDF6E0A
:1010F0000F0E6114066E076A060ED8900636073684
:10110000E804FBE1E00E6214086E096AD890093227
:101110000832D8900932083206500824046E07506D
:101120000920056E030E62140A6E0B6AD8900A3607
:101130000B3604500A24026E05500B20036E800EFD
:1011400063140C6E0D6A070ED8900D320C32E80451
:10115000FBE102500C24006E03500D20016E010EC5
:1011600000C0DBFF020E01C0DBFF7E0E6314E8400F
:101170007F0BE76E030EE7CFDBFF010E6314026EF9
:1011800002C003F0026A645000010224006E000EE7
:101190000320016E040E00C0DBFF050E01C0DBFF63
:1011A0006550010B026E6550020B01E0010EE82450
:1011B000016E6550040B01E0010E040DF3CF00F049
:1011C0006550080B01E0010E080DF35000240124C6
:1011D0000224E76E060EE7CFDBFF070E66CFDBFFCC
:1011E000080E67CFDBFF090E68CFDBFF0A0E69CF61
:1011F000DBFF0B0E6ACFDBFF0C0E6BCFDBFF0D0EA0
:101200006CCFDBFF0E0E6DCFDBFF609ED9CFE9FF09
:10121000DACFEAFFEECFE6FFEECFE6FFEECFE6FF56
:10122000EECFE6FFEECFE6FFEECFE6FFEECFE6FF36
:10123000EECFE6FFEECFE6FFEECFE6FFEECFE6FF26
:10124000EECFE6FFEECFE6FFEECFE6FFEECFE6FF16
:10125000D2EC0AF0006E0F0EE15E00500F0EE15C62
:1012600002E2E16AE552E16EE552E7CFD9FF1200F2
:10127000D9CFE6FFE1CFD9FF0F0140B704D0000E70
:1012800077140309776E0F0130B704D0000E77147E
:101290000409776E0F0120B705D0000E77140509F9
:1012A000776E02D0000EB0D0EF0EDBCF00F000342E
:1012B0000EE2EF0EDBCF01F0030EE76E0118E8AE91
:1012C00002D0013403D0E750D880015402E2EF0E7F
:1012D000DB6AF10EDBCF00F0F20EDBCF01F0C00EC7
:1012E0000016030E0116060ED89001320032E804F3
:1012F000FBE1F00EDB500F0B100DF3500024616E7C
:10130000060EE76EF10EDBCF02F0F20EDBCF03F03C
:10131000E7500216036AD890033202323F0EE76E9E
:10132000F10EDBCF00F0F20EDBCF01F0E75000163C
:10133000016AD89000360136D89000360136005048
:101340000224626EF40EDBCF02F0F50EDBCF03F069
:10135000000E0216010E031603C002F0036A010E0E
:10136000E76EF10EDBCF00F0F20EDBCF01F0E750BD
:101370000016016A070ED89000360136E804FBE13A
:10138000F30EDB503F0BE82400240224636EFF0EB3
:10139000E76EF40EDBCF00F0F50EDBCF01F0E75087
:1013A0000016016A0050646E656AF60EDB5008088C
:1013B00003E2080E656E03D0F60EDB50656E659C89
:1013C000F70EDB50666EF80EDB50676EF90EDB50E1
:1013D000686EFA0EDB50696EFB0EDB506A6EFC0E17
:1013E000DB506B6EFD0EDB506C6EFE0EDB506D6ED7
:1013F0006286EF0EDBCFE6FFFC0E6014E552E710CD
:10140000606E6086010E00D0E552E7CFD9FF120072
:10141000D9CFE6FFE1CFD9FF0F0EE126BED822ECEF
:1014200008F091EC0BF0910EF36E070EF3CFDBFF9B
:10143000010EF36E060EF3CFDBFF020EE66ED9CF80
:10144000E9FFDACFEAFFEECFE6FFEECFE6FFEECF21
:10145000E6FFEECFE6FFEECFE6FFEECFE6FFEECF04
:10146000E6FFEECFE6FFEECFE6FFEECFE6FFEECFF4
:10147000E6FFEECFE6FFEECFE6FFEECFE6FFEECFE4
:10148000E6FF38EC09F0006E100EE15E00509BECB8
:101490000BF000016E51125C006E6F511358016E1B
:1014A00070511458026E71511558036ED880640E35
:1014B0000054000E0154000E0254000E03540BE2BF
:1014C00082729BEC0BF012C06EF013C06FF014C070
:1014D00070F015C071F0DBD70F0EE15C02E2E16A3B
:1014E000E552E16EE552E7CFD9FF1200DACFE4FF13
:1014F000E2CFDAFFE9CFE4FFEACFE4FFF6CFE4FF83
:10150000F7CFE4FFF5CFE4FFF3CFE4FFF4CFE4FF40
:10151000FACFE4FF00EE0EF00B0EE80403E3EECF8B
:10152000E4FFFBD700EE00F00E0EE80403E3EECF7D
:10153000E4FFFBD7E65204004DEC08F0A5EC0BF0FD
:10154000E55200EE0DF00E0EE80403E3E5CFEDFFEB
:10155000FBD700EE18F00B0EE80403E3E5CFEDFF38
:10156000FBD7E5CFFAFFE5CFF4FFE5CFF3FFE5CFFB
:10157000F5FFE5CFF7FFE5CFF6FFE5CFEAFFE5CFD3
:10158000E9FFE5CFDAFF1100DACFE4FFE2CFDAFFBF
:10159000E652E552E5CFDAFF11009492F28EF28C1A
:1015A000D08E1200D9CFE6FFE1CFD9FF0400F00EB4
:1015B000DB5001E00DD0D950F10FE96EFF0EDA20BB
:1015C000EA6E010EEE1801E1ED5001E1FF0000D0DE
:0815D000E552E7CFD9FF12003C
:0815D800D9CFE6FFE1CFD9FFF6
:1015E000FD0EDBCF00F0FE0EDBCF01F001C000F0FE
:1015F000016A0050AA6EFF0EE76EFD0EDBCF00F011
:10160000FE0EDBCF01F0E7500016016A0050A96E14
:10161000A69EA69CA680A85000D0E552E7CFD9FF91
:101620001200D9CFE6FFE1CFD9FFA198FD0EDBCFA5
:1016300000F0FE0EDBCF01F001C000F0016A0050A7
:10164000AA6EFF0EE76EFD0EDBCF00F0FE0EDBCFC5
:1016500001F0E7500016016A0050A96EFC0EDB5045
:10166000A86EA69EA69CA684F29E550EA76EAA0EF4
:10167000A76EA682F28EA1A8FED7A694E552E7CF68
:04168000D9FF12007C
:0C1684002A0EF66E100EF76E000EF86EC7
:1016900000010900F550656F0900F550666F03E120
:1016A000656701D03DD00900F550606F0900F55025
:1016B000616F0900F550626F09000900F550E96E8D
:1016C0000900F550EA6E090009000900F550636F42
:1016D0000900F550646F09000900F6CF67F0F7CFF5
:1016E00068F0F8CF69F060C0F6FF61C0F7FF62C034
:1016F000F8FF0001635302E1645307E00900F5506D
:10170000EE6E6307F8E26407F9D767C0F6FF68C0BA
:10171000F7FF69C0F8FF00016507000E665BBFD7E1
:021720001200B5
:0E172200790ED66EFE0ED76E070ED56ED58EE2
:10173000F284F28A120072C012F073C013F074C007
:1017400014F075C015F000D01200F2A40BD0FE0EFC
:10175000D76E790ED66E0001722B000E73237423A0
:061760007523F294120053
:0A1766001CEE00F02CEE00F0F86A13
:0E177000189C42EC0BF008EC0AF0FDD71200BA
:02177E00000069
:02178000000067
:0817820000000000000000005F
:00000001FF
