:020000040000FA
:060000007CEF10F012007D
:061000007CEF10F012006D
:0610080075EF0CF0120070
:06101800C2EF0CF0120013
:06102A000500402100005A
:101030009C000000030000002F210000730000004E
:10104000110000002B2100009800000004000000A7
:101050002A2100009F00000001000000262100005E
:081060009400000004000000F0
:08106800800E6F6EE00E6E14A5
:10107000800801E0FBD7040E706ED10E716E810EF8
:10108000726E776A778E779C608C609A0D01FC6B2C
:10109000A46A030EA36EA56EFA696F6AE00E6E1461
:1010A00001E0FCD744EC10F0000EE66EE66AA1EC1D
:1010B0000EF0E552E5522A082BE1010EE66EE66AD3
:1010C000A1EC0EF0E552E552146E14C015F0146A4E
:1010D00014C0E6FF15C0E6FF020EE66EE66AA1EC5C
:1010E0000EF0E552E552E552E7CF15F0E552E7CFB5
:1010F00014F0000114249C6F000E15209D6F030E48
:10110000E66EE66AA1EC0EF0E552E55200019E6F34
:101110000001646B080E656F666B010E6A6F6B6F82
:10112000020EE66E64C0E6FF65C0E6FF66C0E6FF3D
:1011300067C0E6FF68C0E6FF69C0E6FF6AC0E6FF79
:101140006BC0E6FF6CC0E6FF6DC0E6FF6EC0E6FF59
:101150006FC0E6FF70C0E6FF71C0E6FF72C0E6FF39
:10116000F3D9146E100EE15E1450000901E1D8D7D6
:101170001200A450020B06E1A450020B03E1A4509C
:10118000010B16E00F0E6F141009146E000E771489
:101190001410776E60BE6AD8A4A202D0A49265D063
:1011A000A4A202D0A49261D0A4A002D0A4905DD049
:1011B00058EC10F04EEC10F000016051065C146E1B
:1011C000000161510758156E000162510858166EF2
:1011D000000163510958176ED880F40E1454010EA3
:1011E0001554000E1654000E17543EE20001646BB5
:1011F000080E0001656F666B0001010E6A6F000149
:10120000020E6B6F020EE66E64C0E6FF65C0E6FF7D
:1012100066C0E6FF67C0E6FF68C0E6FF69C0E6FF9C
:101220006AC0E6FF6BC0E6FF6CC0E6FF6DC0E6FF7C
:101230006EC0E6FF6FC0E6FF70C0E6FF71C0E6FF5C
:1012400072C0E6FF81D9146E100EE15E14500009E1
:1012500001E1D8D74EEC10F006C060F007C061F095
:1012600008C062F009C063F004001200D9CFE6FFA5
:10127000E1CFD9FF0F0EE126F00E6114E8380F0B15
:10128000DF6E0F0E61141A6E1B6A060ED8901A36A6
:101290001B36E804FBE1E00E62141C6E1D6AD89058
:1012A0001D321C32D8901D321C321A501C24186E6C
:1012B0001B501D20196E030E62141E6E1F6AD890FB
:1012C0001E361F3618501E24166E19501F20176E1A
:1012D000800E6314206E216A070ED89021322032CE
:1012E000E804FBE116502024146E17502120156EDF
:1012F000010E14C0DBFF020E15C0DBFF7E0E63146F
:10130000E8407F0BE76E030EE7CFDBFF010E6314AF
:10131000166E16C017F0166A645000011624146E7B
:10132000000E1720156E040E14C0DBFF050E15C04D
:10133000DBFF6550010B166E6550020B01E0010EDC
:10134000E824156E6550040B01E0010E040DF3CF87
:1013500014F06550080B01E0010E080DF350142441
:1013600015241624E76E060EE7CFDBFF070E66CFC7
:10137000DBFF080E67CFDBFF090E68CFDBFF0A0E2D
:1013800069CFDBFF0B0E6ACFDBFF0C0E6BCFDBFFF1
:101390000D0E6CCFDBFF0E0E6DCFDBFF609EDF50BE
:1013A00001E0A0D0030EDB5000019E5D01E09AD069
:1013B0000C0EDBCF16F016C017F0166A0B0EDB50C2
:1013C00000011624146E000E1720156E00019C51AA
:1013D000141802E19D51151801E084D0D950010F75
:1013E000E96EDACFEAFF010EEE1801E1ED5001E1FE
:1013F000FF00D950010FE96EDACFEAFF060EEE18B2
:1014000001E1ED506FE1080EDBCF14F014C015F0D0
:10141000146A070EDB50000114249C6F000E152087
:101420009D6F090EDBCF9EF0080EDBCFE6FF010EAD
:10143000E66EE66AC6EC0EF0E552E552E552070E9E
:10144000DBCFE6FF020EE66EE66AC6EC0EF0E55272
:10145000E552E552090EDBCFE6FF030EE66EE66AC3
:10146000C6EC0EF0E552E552E5522A0EE66E000E8D
:10147000E66EE66AC6EC0EF0E552E552E552000172
:10148000646B040E0001656F666B0001080E6A6FE5
:1014900000016F6B020EE66E64C0E6FF65C0E6FFFA
:1014A00066C0E6FF67C0E6FF68C0E6FF69C0E6FF0A
:1014B0006AC0E6FF6BC0E6FF6CC0E6FF6DC0E6FFEA
:1014C0006EC0E6FF6FC0E6FF70C0E6FF71C0E6FFCA
:1014D00072C0E6FF39D8146E100EE15E1450000998
:1014E00001E1D8D7D9CFE9FFDACFEAFFEECFE6FFA7
:1014F000EECFE6FFEECFE6FFEECFE6FFEECFE6FF64
:10150000EECFE6FFEECFE6FFEECFE6FFEECFE6FF53
:10151000EECFE6FFEECFE6FFEECFE6FFEECFE6FF43
:10152000EECFE6FFEECFE6FF13EC0DF0146E0F0EDC
:10153000E15E14500F0EE15C02E2E16AE552E16EF9
:10154000E552E7CFD9FF1200D9CFE6FFE1CFD9FFAF
:101550000F0140B704D0000E77140309776E0F0116
:1015600030B704D0000E77140409776E0F0120B74E
:1015700005D0000E77140509776E02D0000EB9D0A1
:10158000EF0EDBCF14F014340EE2EF0EDBCF15F0CC
:10159000030EE76E1518E8AE02D0153403D0E750FD
:1015A000D880155402E2EF0EDB6AF30E9EC0DBFF1B
:1015B000F40E9CC0DBFFF50E9DC0DBFFF10EDBCF10
:1015C00014F0F20EDBCF15F0C00E1416030E151634
:1015D000060ED89015321432E804FBE1F00EDB5011
:1015E0000F0B100DF3501424616E060EE76EF10E12
:1015F000DBCF16F0F20EDBCF17F0E7501616176AA6
:10160000D890173216323F0EE76EF10EDBCF14F092
:10161000F20EDBCF15F0E7501416156AD890143689
:101620001536D8901436153614501624626EF40E02
:10163000DBCF16F0F50EDBCF17F0000E1616010EFD
:10164000171617C016F0176A010EE76EF10EDBCF02
:1016500014F0F20EDBCF15F0E7501416156A070EE2
:10166000D89014361536E804FBE1F30EDB503F0B3F
:10167000E82414241624636EFF0EE76EF40EDBCF0D
:1016800014F0F50EDBCF15F0E7501416156A145060
:10169000646E656AF60EDB50080803E2080E656E9C
:1016A00003D0F60EDB50656E659CF70EDB50666E60
:1016B000F80EDB50676EF90EDB50686EFA0EDB50E9
:1016C000696EFB0EDB506A6EFC0EDB506B6EFD0E1E
:1016D000DB506C6EFE0EDB506D6E6286EF0EDBCF64
:1016E000E6FFFC0E6014E552E710606E6086010EA6
:0A16F00000D0E552E7CFD9FF120049
:0616FA00D9CFE6FFE1CFAD
:10170000D9FF110EE12689D934EC08F00B0EE66EF4
:10171000010EE66E22EC0DF0E552E55299EC0FF069
:101720004EEC10F000017751065C146E78510758AA
:10173000156E79510858166E7A510958176ED8806F
:10174000640E1454000E1554000E1654000E175457
:101750000BE282724EEC10F006C077F007C078F012
:1017600008C079F009C07AF04EEC10F00001805109
:10177000065C146E81510758156E82510858166E1A
:1017800083510958176ED880C80E1454000E155492
:10179000000E1654000E17540AE24EEC10F006C06C
:1017A00080F007C081F008C082F009C083F04EECE1
:1017B00010F000017B51065C146E7C510758156EC9
:1017C0007D510858166E7E510958176ED880C80E84
:1017D0001454000E1554000E1654000E175415E242
:1017E0007F5103E1010E7F6F01D07F6B7FC0E6FF69
:1017F00090EC0DF0E5524EEC10F006C07BF007C007
:101800007CF008C07DF009C07EF09DEC0EF0000970
:1018100061E0D9500F0FE66E000EDA20E66ED95067
:10182000100FE66E000EDA20E66EBBEC0DF0E5520E
:10183000E552E552E552010EDF6E00017F5102E1F3
:10184000100E01D0110E146E156A14BE1568010E2B
:1018500014C0DBFF020E15C0DBFFF36E060EF3CFE4
:10186000DBFF100EDB50E76E080EE7CFDBFF0F0E3D
:10187000DB50E76E070EE7CFDBFF020EE66ED9CF37
:10188000E9FFDACFEAFFEECFE6FFEECFE6FFEECFDD
:10189000E6FFEECFE6FFEECFE6FFEECFE6FFEECFC0
:1018A000E6FFEECFE6FFEECFE6FFEECFE6FFEECFB0
:1018B000E6FFEECFE6FFEECFE6FFEECFE6FFEECFA0
:1018C000E6FFA4EC0AF0146E100EE15E145000095D
:1018D00001E1D3D725D7110EE15C02E2E16AE552BE
:1018E000E16EE552E7CFD9FF1200DACFE4FFE2CF95
:1018F000DAFFE9CFE4FFEACFE4FFF6CFE4FFF7CF6A
:10190000E4FFF5CFE4FFF3CFE4FFF4CFE4FFFACF39
:10191000E4FF00EE00F0140EE80403E3EECFE4FF72
:10192000FBD700EE14F00E0EE80403E3EECFE4FF65
:10193000FBD7E652B9EC08F0CBEC0FF0E55200EE25
:1019400021F00E0EE80403E3E5CFEDFFFBD700EE38
:1019500013F0140EE80403E3E5CFEDFFFBD7E5CF6A
:10196000FAFFE5CFF4FFE5CFF3FFE5CFF5FFE5CFD5
:10197000F7FFE5CFF6FFE5CFEAFFE5CFE9FFE5CFDB
:10198000DAFF1100DACFE4FFE2CFDAFFE9CFE4FFBC
:10199000EACFE4FFF6CFE4FFF7CFE4FFF5CFE4FFB3
:1019A000F3CFE4FFF4CFE4FFFACFE4FF00EE00F062
:1019B000140EE80403E3EECFE4FFFBD700EE14F0CF
:1019C0000E0EE80403E3EECFE4FFFBD7E6523CEC57
:1019D0000DF0E55200EE21F00E0EE80403E3E5CF32
:1019E000EDFFFBD700EE13F0140EE80403E3E5CFA0
:1019F000EDFFFBD7E5CFFAFFE5CFF4FFE5CFF3FF2F
:101A0000E5CFF5FFE5CFF7FFE5CFF6FFE5CFEAFF3E
:101A1000E5CFE9FFE5CFDAFF110094929498F28EBA
:101A2000F28CD08E1200D9CFE6FFE1CFD9FF0F0E96
:101A3000E126E15C02E2E16AE552E16EE552E7CFC0
:041A4000D9FF1200B8
:0C1A4400D9CFE6FFE1CFD9FFFD0EDB504B
:101A50000F0B146EFE0EDB50010B100DF350141023
:101A6000C16EC26AAB0EC06EC2809E9C9D8C9F9C54
:101A7000E552E7CFD9FF12009D50400B50E09E5039
:101A8000400B4DE09E9CC450186E18C019F0186AA7
:101A9000C35000011810146E19C015F0166A176AA9
:101AA00015AE02D016681768145000018E27155025
:101AB0008F231650902317509123922B000E9323BF
:101AC000320E925D000E935924E392C014F093C03D
:101AD00015F0166A176A8EC006F08FC007F090C026
:101AE00008F091C009F014C00BF015C00CF016C03E
:101AF0000DF017C00EF020EC10F006C08EF007C0FD
:101B00008FF008C090F009C091F00001010E9F6FA6
:101B100006D0640EE66E88EC10F0E552C282120028
:101B2000D9CFE6FFE1CFD9FFFE0EDB500F0802E26E
:101B3000000E15D000018E6B8F6B906B916B926BCA
:101B4000936BC30EC214146EFE0EDB50040DF350E3
:101B50001410C26E00019F6BC282010E00D0E552CC
:101B6000E7CFD9FF120000019F6B8EC0F3FF8FC03B
:101B7000F4FF00D01200D9CFE6FFE1CFD9FF080E65
:101B8000E126DE6ADD6A8EC018F08FC019F090C0C1
:101B90001AF091C01BF0270E0B6E0C6A0D6A0E6ACC
:101BA00018C006F019C007F01AC008F01BC009F0F1
:101BB000E8EC0FF002C018F003C019F004C01AF0EE
:101BC00005C01BF0040ED8901B321A32193218329D
:101BD000E806F9E118C014F019C015F01AC016F0A3
:101BE0001BC017F0F30E145E010E155A000E165AA4
:101BF000175A060E14C0DBFF070E15C0DBFF0A0ED6
:101C0000146E156A060EDBCF08F0070EDBCF09F065
:101C100014C00DF015C00EF0F7EC0EF0020E08C067
:101C2000DBFF030E09C0DBFF060EDBCF16F0070E4D
:101C3000DBCF17F00A0E086E096A020EDBCF0DF03B
:101C4000030EDBCF0EF01DEC0FF00650165C146E89
:101C500007501758156E040E14C0DBFF050E15C093
:101C6000DBFF040EDBCF14F0050EDBCF15F0000117
:101C7000800E151412E1040EDBCF16F0050EDBCF3B
:101C800017F0173404E216500208000E175405E34B
:101C9000040EDB6A050EDB6A2CD0040EDBCF14F0D9
:101CA000050EDBCF15F0D890155004E6030E145C3A
:101CB000000E155815E3040EDBCF16F0050EDBCF32
:101CC00017F0173404E216500708000E175408E303
:101CD000050EF36E040EF3CFDBFF050EDB6A09D0B1
:101CE000040EDB6A050EDB6A020EDB2A030E01E33B
:101CF000DB2A020EDBCF08F0030EDBCF09F0FD0E6E
:101D000008C0DBFFFE0E09C0DBFF040EDBCF08F0CE
:101D1000050EDBCF09F0FB0E08C0DBFFFC0E09C08F
:101D2000DBFF00019F6B080EE15C02E2E16AE55215
:101D3000E16EE552E7CFD9FF120000019F5100D0BC
:021D400012008F
:0E1D4200D9CFE6FFE1CFD9FFFD0EDBCF14F0C5
:101D5000FE0EDBCF15F015C014F0156A1450AA6EF4
:101D6000FF0EE76EFD0EDBCF14F0FE0EDBCF15F09D
:101D7000E7501416156A1450A96EA69EA69CA6805C
:101D8000A85000D0E552E7CFD9FF1200D9CFE6FF27
:101D9000E1CFD9FFA198FD0EDBCF14F0FE0EDBCF13
:101DA00015F015C014F0156A1450AA6EFF0EE76EF8
:101DB000FD0EDBCF14F0FE0EDBCF15F0E75014164E
:101DC000156A1450A96EFC0EDB50A86EA69EA69C48
:101DD000A684F29E550EA76EAA0EA76EA682F28E5C
:0E1DE000A1A8FED7A694E552E7CFD9FF1200C6
:021DEE00006A89
:101DF0000EAE00EF0FF00D6C0E1EE86A0E22001EF4
:101E000009AE08EF0FF0086C091EE86A0922001EEF
:101E100066EC10F009BE18EF0FF000AE000C086C75
:101E2000091EE86A0922046C051EE86A0522000CF6
:101E300000BE0FEF0FF00188FF0C09C013F008C0BF
:101E400012F008500D02F4CF07F0F3CF06F009505E
:101E50000E02F4CF09F0F3CF08F00D02F35007267D
:101E6000F4500822E86A092212500E02F3500726A5
:101E7000F4500822E86A09220EAE43EF0FF0125028
:101E8000085E1350095A13AE000C0D50085E0E5038
:041E9000095A000CDF
:0C1E94002A0EF66E100EF76E000EF86EAF
:101EA00000010900F550896F0900F5508A6F03E1C0
:101EB000896701D03DD00900F550846F0900F550C5
:101EC000856F0900F550866F09000900F550E96E2D
:101ED0000900F550EA6E090009000900F550876F06
:101EE0000900F550886F09000900F6CF8BF0F7CF95
:101EF0008CF0F8CF8DF084C0F6FF85C0F7FF86C068
:101F0000F8FF0001875302E1885307E00900F5500C
:101F1000EE6E8707F8E28807F9D78BC0F6FF8CC012
:101F2000F7FF8DC0F8FF00018907000E8A5BBFD75D
:021F300012009D
:0E1F3200C10ECD6EEC0ECF6E780ECE6E9E9070
:101F40009D809F801200D9CFE6FFE1CFD9FF00012D
:101F5000040E946F976BFD0EDBCF95F0FE0EDBCF7A
:101F600096F0E552E7CFD9FF1200D9CFE6FFE1CFD7
:101F7000D9FF0001020E946F976BFD0EDBCF95F039
:101F8000FE0EDBCF96F0E552E7CFD9FF120000013D
:101F9000956B966B12009E50010B19E09D50010B42
:101FA00016E0EC0ECF6E780ECE6E0001010ED880DA
:101FB0009555000E96550AE29707010E975D06E2C9
:101FC0009507000E965B827894C097F09E90120061
:101FD00006500B02F3CF02F0F4CF03F00C02F350E3
:101FE0000326000EF420046E06500D02F350042662
:101FF000000EF420056E06500E02F3500526075021
:102000000B02F3500326F4500422000E0522075061
:102010000C02F3500426F450052207500D02F35031
:10202000052608500B02F3500426F45005220850F0
:102030000C02F350052609500B02F350052612003E
:10204000056A046A036A026A200EE76ED8900636B3
:1020500007360836093602360336043605360B5085
:10206000025C0C5003580D5004580E50055809E3FB
:102070000B50025E0C50035A0D50045A0E50055A74
:08208000062AE72EE4D7120046
:08208800790ED66EFE0ED76E34
:10209000070ED56ED58EF284F28A120098C006F033
:1020A00099C007F09AC008F09BC009F000D0120058
:1020B000F2A40BD0FE0ED76E790ED66E0001982BCF
:0C20C000000E99239A239B23F294120037
:0420CC00056A046A33
:1020D000100EE76ED89008360936043605360D50D6
:1020E000045C0E50055805E30D50045E0E50055A71
:0820F000082AE72EF0D71200C8
:0820F8001CEE00F02CEE00F0DC
:10210000F86A019C4AEC0FF07DEC0BF0FDD7120051
:10211000FF0EE350E84E1200000000D000D000D0C7
:06212000E82EFAD71200C0
:0421260002000000B3
:01212A0000B4
:04212B0000000000B0
:01212F0000AF
:10213000000000000000000000000000000000009F
:0321400078000024
:00000001FF
