:020000040000FA
:0600000031EF07F01200D1
:0600080090EF00F0120071
:06001800E9EF00F0120008
:06002A0002007E0E000042
:100030006A000000060000007A0E00007500000053
:0400400004000000B8
:0C004400D9CFE6FFE1CFD9FF0E0EE12678
:10005000D1D8BAEC03F0FFEC05F010EC07F01AEC85
:1000600007F000016B51185C006E6C511958016E5D
:100070006D511A58026E6E511B58036EF40E005CDF
:10008000010E0158000E0258000E0358E8E36A05FD
:10009000E6E11AEC07F018C06BF019C06CF01AC05A
:1000A0006DF01BC06EF0660EDE6E060EDE6EDE6A52
:1000B000DD6ADD52DD52040EDB6A010EF36E050EC1
:1000C000F3CFDBFF480EF36E060EF3CFDBFFD9CF85
:1000D000E9FFDACFEAFFEECFE6FFEECFE6FFEECFA5
:1000E000E6FFEECFE6FFEECFE6FFEECFE6FFEECF88
:1000F000E6FFEECFE6FFEECFE6FFEECFE6FFEECF78
:10010000E6FFEECFE6FFEECFE6FFEECFE6FF1FEC19
:1001100005F0006E0E0EE15E00500009A0E1D7D799
:10012000D8CFE4FFE0CFE4FFE46EDACFE4FFE2CF24
:10013000DAFFE9CFE4FFEACFE4FFF6CFE4FFF7CF41
:10014000E4FFF5CFE4FFF3CFE4FFF4CFE4FFFACF11
:10015000E4FF00EE14F00B0EE80403E3EECFE4FF3F
:10016000FBD700EE00F0140EE80403E3EECFE4FF4B
:10017000FBD7E652E5EC03F0ABEC06F023EC07F01E
:10018000E55200EE13F0140EE80403E3E5CFEDFFB3
:10019000FBD700EE1EF00B0EE80403E3E5CFEDFF06
:1001A000FBD7E5CFFAFFE5CFF4FFE5CFF3FFE5CFCF
:1001B000F5FFE5CFF7FFE5CFF6FFE5CFEAFFE5CFA7
:1001C000E9FFE5CFDAFFE550E5CFE0FFE5CFD8FF67
:1001D0001000D8CFE4FFE0CFE4FFE46EDACFE4FF15
:1001E000E652E552E5CFDAFFE550E5CFE0FFE5CF97
:1001F000D8FF10009492F19EF28EF28C1200D9CFAB
:10020000E6FFE1CFD9FF020EE126DE6ADD6AFD0ED0
:10021000E66E0BEC06F0E552F10EDBCFE6FF0BECE1
:1002200006F0E552F10EDBCF00F0F20EDBCF01F06D
:10023000F30EDBCF02F0F40EDBCF03F0080ED89004
:100240000332023201320032E806F9E10050E66E74
:100250000BEC06F0E552F10EDBCF00F0F20EDBCF37
:1002600001F0F30EDBCF02F0F40EDBCF03F0100E43
:10027000D8900332023201320032E806F9E1005030
:10028000E66E0BEC06F0E552F10EDBCF00F0F20E5D
:10029000DBCF01F0F30EDBCF02F0F40EDBCF03F087
:1002A000180ED8900332023201320032E806F9E12A
:1002B0000050E66E0BEC06F0E552F50EDBCFE6FFE4
:1002C0000BEC06F0E552F60EDBCFE6FF0BEC06F08A
:1002D000E552DE6ADD6ADECF00F0DDCF01F0D890B6
:1002E000015004E6080E005C000E015823E2D950CC
:1002F000F70F006EFF0EDA20016EF60EDB50046E73
:10030000056ADE50045C026EDD500558036E02067D
:10031000000E035A00500224E96E01500320EA6ED9
:10032000EF50E66E0BEC06F0E552DF2A010ED3E348
:10033000DB2AD1D7FA0EE66E0BEC06F0E552020E80
:10034000E15C02E2E16AE552E16EE552E7CFD9FFF6
:100350001200D9CFE6FFE1CFD9FF110EE126010E41
:10036000DB6A020EDB6A00016F051BE11AEC07F085
:1003700000017051185C006E71511958016E725174
:100380001A58026E73511B58036ED880050E005424
:10039000000E0154000E0254000E035402E200014C
:1003A0006F6B00016F0501E08CD01AEC07F018C0EC
:1003B00070F019C071F01AC072F01BC073F00E0E0D
:1003C0000001745D35E3FE0EDB50006E016AFA0E2B
:1003D00000182BE1015029E1D950030FE96EDACF63
:1003E000EAFFEECFE6FFEECFE6FFEECFE6FFEECF81
:1003F000E6FFEECFE6FFEECFE6FFEECFE6FFEECF75
:10040000E6FFEECFE6FFEECFE6FFEECFE6FFEECF64
:10041000E6FFEECFE6FFEECFE6FF1FEC05F0006E45
:100420000E0EE15E00500009D7E000016F6B98D11D
:10043000060E745D0FE3D950090F006E060E745D51
:100440000F010024E96E000EDA20EA6EFE0EDBCF0B
:10045000EFFF34D0050E745D05E3FE0EDB50E76E52
:10046000080E07D0040E745D07E3FE0EDB50E76E46
:10047000070EE7CFDBFF23D0000E745D22E3FE0EF4
:10048000DBCF00F0016A026A036A080E7403F350BE
:100490001F0B07E0D8900036013602360336E80617
:1004A000F9E1D950030FE96EDACFEAFF0050EE26EA
:1004B0000150EE220250EE220350EE220001742B76
:1004C0004FD1FE0EDB50006E016AFD0E00181CE1DC
:1004D00001501AE100016F5117E1010E6F6F1AEC24
:1004E00007F018C070F019C071F01AC072F01BC08C
:1004F00073F00001746B030EDB6A040EDB6A050EF9
:10050000DB6A060EDB6A2CD1FE0EDB50310855E1AA
:1005100000016F5152E1230EF36E030EF3CFDBFFA8
:10052000010EF36E040EF3CFDBFF050EDB6A060E41
:10053000DB6A070EDB6A040EF36E080EF3CFDBFFF7
:10054000210EF36E090EF3CFDBFF6A0EF36E0A0E77
:10055000F3CFDBFF650EF36E0B0EF3CFDBFF480E20
:10056000F36E0C0EF3CFDBFFD950030FE96EDACF39
:10057000EAFFEECFE6FFEECFE6FFEECFE6FFEECFEF
:10058000E6FFEECFE6FFEECFE6FFEECFE6FFEECFE3
:10059000E6FFEECFE6FFEECFE6FFEECFE6FFEECFD3
:1005A000E6FFEECFE6FFEECFE6FF1FEC05F0006EB4
:1005B0000E0EE15E00500009D7E0FE0EDB5032085F
:1005C0006FE100016F516CE1F00EF36E030EF3CF9B
:1005D000DBFFDE0EF36E040EF3CFDBFFBC0EF36E1B
:1005E000050EF3CFDBFF0A0EF36E060EF3CFDBFF33
:1005F000010EF36E070EF3CFDBFF080EDB6E210E4C
:10060000F36E090EF3CFDBFF670EF36E0A0EF3CF26
:10061000DBFF610EF36E0B0EF3CFDBFF640EF36EA8
:100620000C0EF3CFDBFF200EF36E0D0EF3CFDBFFCE
:10063000640EF36E0E0EF3CFDBFF6F0EF36E0F0E34
:10064000F3CFDBFF470EF36E100EF3CFDBFFD95075
:10065000030FE96EDACFEAFFEECFE6FFEECFE6FF5B
:10066000EECFE6FFEECFE6FFEECFE6FFEECFE6FF02
:10067000EECFE6FFEECFE6FFEECFE6FFEECFE6FFF2
:10068000EECFE6FFEECFE6FFEECFE6FFEECFE6FFE2
:100690001FEC05F0006E0E0EE15E00500009D7E081
:1006A000FE0EDB5033085CE100016F5159E1100E82
:1006B000F36E030EF3CFDBFF040EDB6A050EDB6A7D
:1006C000060EDB6A070EDB6A060EF36E080EF3CF2A
:1006D000DBFF300EF36E090EF3CFDBFF310EF36E4E
:1006E0000A0EF3CFDBFF320EF36E0B0EF3CFDBFF00
:1006F000330EF36E0C0EF3CFDBFF340EF36E0D0EE4
:10070000F3CFDBFF350EF36E0E0EF3CFDBFFD950C8
:10071000030FE96EDACFEAFFEECFE6FFEECFE6FF9A
:10072000EECFE6FFEECFE6FFEECFE6FFEECFE6FF41
:10073000EECFE6FFEECFE6FFEECFE6FFEECFE6FF31
:10074000EECFE6FFEECFE6FFEECFE6FFEECFE6FF21
:100750001FEC05F0006E0E0EE15E00500009D7E0C0
:10076000110EE15C02E2E16AE552E16EE552E7CF8B
:04077000D9FF12009B
:0C077400800E6F6EE00E6E148008FCE139
:10078000706A709E708C090E7010706E718E719A06
:1007900071987186719471927180729E729C72943C
:1007A00072927280776A779E778C608C609A0D0166
:1007B000FC6BA46A030EA36EA56EFA69400E6F6E01
:1007C000E00E6E144008FCE11200A450020B06E19A
:1007D000A450020B03E1A450010B3AE060AE04D038
:1007E000000E771410092BD00F0150AF04D0000E6B
:1007F0007714110924D00E0120AF04D0000E771415
:1008000012091DD030AF04D0000E7714130917D091
:1008100040AF04D0000E7714140911D050AF04D0AB
:10082000000E771415090BD060AF04D0000E7714BA
:10083000160905D070AF05D0000E77141709776E32
:1008400008D8A4A203D0A492A4B2A492A4B0A49065
:100850001200D9CFE6FFE1CFD9FF0E0EE12662509C
:10086000080B02E1000E01D0010EE76E040EE7CF87
:10087000DBFFDE6ADE6ADE6ADD6ADD52DD52DB0442
:1008800063E16150006E016A026A036A150E1F0B74
:1008900007E0D8900036013602360336E806F9E163
:1008A000E00E6214046E056A066A076A0D0E1F0BDD
:1008B00007E0D8900436053606360736E806F9E133
:1008C0000450002605500122065002220750032240
:1008D000030E6214086E096A0A6A0B6A100E1F0B77
:1008E00007E0D890083609360A360B36E806F9E1F3
:1008F00008500026095001220A5002220B50032200
:1009000063500C6E0D6A0E6A0F6A080E1F0B07E02B
:10091000D8900C360D360E360F36E806F9E10C503D
:1009200000260D5001220E5002220F500322645067
:10093000106E116A126A136AE850002611500122E3
:1009400012500222135023D06150006E016A026AD5
:10095000036A030E1F0B07E0D890003601360236FB
:100960000336E806F9E16250046E056A066A076A12
:10097000050ED8900732063205320432E806F9E156
:10098000045000260550012206500222075003227F
:1009900000C0DFFF010E01C0DBFF020E02C0DBFF63
:1009A000030E03C0DBFF050E65CFDBFF060E66CF2F
:1009B000DBFF070E67CFDBFF080E68CFDBFF090EFA
:1009C00069CFDBFF0A0E6ACFDBFF0B0E6BCFDBFFBD
:1009D0000C0E6CCFDBFF0D0E6DCFDBFF609ED9CF11
:1009E000E9FFDACFEAFFEECFE6FFEECFE6FFEECF8C
:1009F000E6FFEECFE6FFEECFE6FFEECFE6FFEECF6F
:100A0000E6FFEECFE6FFEECFE6FFEECFE6FFEECF5E
:100A1000E6FFEECFE6FFEECFE6FFEECFE6FFFFEC20
:100A200000F0006E0E0EE15E00500E0EE15C02E280
:100A3000E16AE552E16EE552E7CFD9FF1200D9CF66
:100A4000E6FFE1CFD9FF0F0140B704D0000E7714C5
:100A50000309776E0F0130B704D0000E7714040934
:100A6000776E0F0120B705D0000E77140509776E59
:100A700002D0000EC0D0F50EDB045FE1F10EDBCF3B
:100A800000F0F20EDBCF01F0F30EDBCF02F0F40E3C
:100A9000DBCF03F0150ED890033202320132003260
:100AA000E806F9E10050616EF10EDBCF05F0F20EC1
:100AB000DBCF06F0F30EDBCF07F0F40EDBCF08F050
:100AC0000D0ED8900832073206320532E806F9E1F9
:100AD000E00E0514046EF10EDBCF00F0F20EDBCF5A
:100AE00001F0F30EDBCF02F0F40EDBCF03F0100EBB
:100AF000D8900332023201320032E806F9E1030EE7
:100B000000140424626EF10EDBCF00F0F20EDBCF96
:100B100001F0F30EDBCF02F0F40EDBCF03F0080E92
:100B2000D8900332023201320032E806F9E1005077
:100B3000636EF10EDB50646E2FD0F10EDBCF00F050
:100B4000F20EDBCF01F0F30EDBCF02F0F40EDBCFC1
:100B500003F0030ED8900332023201320032E8066D
:100B6000F9E10050616EF10EDBCF00F0F20EDBCF49
:100B700001F0F30EDBCF02F0F40EDBCF03F0050E35
:100B80001F0B07E0D8900036013602360336E80620
:100B9000F9E1E00E0014626EF60EDB50080803E285
:100BA000080E656E03D0F60EDB50656EF70EDB5057
:100BB000666EF80EDB50676EF90EDB50686EFA0E4B
:100BC000DB50696EFB0EDB506A6EFC0EDB506B6E09
:100BD000FD0EDB506C6EFE0EDB506D6EF50EDB0411
:100BE00002E1010E01D0000EE8B06286E8A0629634
:0E0BF0006086010E00D0E552E7CFD9FF12005B
:020BFE00948ED3
:100C0000949C200EAC6E900EAB6E1F0EAF6E9E9A33
:100C10009D8A9F8A1200D9CFE6FFE1CFD9FFFE0E51
:100C2000DB50AD6E48D80009FDE1E552E7CFD9FFB2
:100C30001200D9CFE6FFE1CFD9FF3DD80009FDE191
:100C4000FD0EDBCFE9FFFE0EDBCFEAFFEF50E66ED5
:100C5000E2DFE552FD0EDBCFE9FFDB2AFE0EDBCF44
:100C6000EAFF01E3DB2AEF50E8E1E552E7CFD9FFE5
:100C70001200D9CFE6FFE1CFD9FF1DD80009FDE171
:100C8000FD0EDBCFF6FFFE0EDBCFF7FF0800F550C1
:100C9000E66EC1DFE552FD0EDBCFF6FFDB2AFE0E6E
:100CA000DBCFF7FF01E3DB2A0800F550E6E1E55270
:100CB000E7CFD9FF1200AC50020B020A01E0010E8F
:100CC0001200AE501200D9CFE6FFE1CFD9FF030EDC
:100CD000E126DE6ADD6AFC0EDB502FE049D8000910
:100CE00014E1DECF00F0DDCF01F0FA0EDBCF02F031
:100CF000FB0EDBCF03F00250005C035001581DE2F5
:100D0000DF2A010EEBE3DB2AE9D7DE6ADD6AD9DFF1
:100D1000E76E020EE7CFDBFFFD0EDBCFE9FFFE0E35
:100D2000DBCFEAFF020EDBCFEFFFFD0EDB2AFE0E6C
:100D300001E3DB2AFC0EDB06CED7FC0EDB50006E97
:100D4000030EE15C02E2E16AE552E16E0050E55219
:100D5000E7CFD9FF12009E50200B09E09D50200BD9
:100D600006E0AFDFE66EA9EC01F0E5529E9A1200B4
:100D7000ABA202D0AB98AB889E50200B01E0010ED5
:020D800012005F
:0E0D82002A0EF66E000EF76E000EF86E0001DF
:100D90000900F550656F0900F550666F03E165675E
:100DA00001D03DD00900F550606F0900F550616F2A
:100DB0000900F550626F09000900F550E96E09005D
:100DC000F550EA6E090009000900F550636F09004B
:100DD000F550646F09000900F6CF67F0F7CF68F0AF
:100DE000F8CF69F060C0F6FF61C0F7FF62C0F8FF9E
:100DF0000001635302E1645307E00900F550EE6E11
:100E00006307F8E26407F9D767C0F6FF68C0F7FF29
:100E100069C0F8FF00016507000E665BBFD71200CE
:100E2000790ED66EFE0ED76E070ED56ED58EF28475
:100E3000F28A120075C018F076C019F077C01AF067
:100E400078C01BF01200F2A40BD0FE0ED76E790E04
:100E5000D66E0001752B000E762377237823F2944B
:020E600012007E
:0E0E62001CEE00F02CEE00F0F86A1E9CC1ECB5
:0A0E700006F022EC00F0FDD712009E
:040E7A000000000074
:020E7E00000072
:040E8000000000006E
:00000001FF
