:020000040000FA
:0600000044EF10F01200B5
:0610000044EF10F01200A5
:06100800EEEF09F01200FA
:061018003CEF0AF012009B
:06102A000300BB200000E2
:101030006000000014000000B720000084000000E1
:1010400004000000B620000088000000010000003D
:10105000D9CFE6FFE1CFD9FF110EE12658DA53ECE4
:101060000BF00B0EE66E010EE66E39EC0DF0E5525C
:10107000E5520CEC10F0000EE66EE66AB8EC0EF0ED
:10108000E552E5522A082BE1010EE66EE66AB8EC5D
:101090000EF0E552E552146E14C015F0146A14C037
:1010A000E6FF15C0E6FF020EE66EE66AB8EC0EF04B
:1010B000E552E552E552E7CF15F0E552E7CF14F0DF
:1010C00000011424606F000E1520616F030EE66EA0
:1010D000E66AB8EC0EF0E552E5520001626FDF6A95
:1010E000080EF36E010EF3CFDBFF020EDB6A030E78
:1010F00062C0DBFF040E60C0DBFF050E61C0DBFFDA
:10110000010EF36E060EF3CFDBFF010EF36E070E3A
:10111000F3CFDBFF020EE66ED9CFE9FFDACFEAFFAD
:10112000EECFE6FFEECFE6FFEECFE6FFEECFE6FF37
:10113000EECFE6FFEECFE6FFEECFE6FFEECFE6FF27
:10114000EECFE6FFEECFE6FFEECFE6FFEECFE6FF17
:10115000EECFE6FFEECFE6FFEECFE6FF69EC0CF058
:10116000146E100EE15E1450000901E1D3D716ECA5
:1011700010F000016B51065C146E6C510758156E2F
:101180006D510858166E6E510958176ED880F40EBE
:101190001454010E1554000E1654000E175452E24A
:1011A000DF6A080EF36E010EF3CFDBFF020EDB6A7F
:1011B000030E62C0DBFF040E60C0DBFF050E61C0E2
:1011C000DBFF010EF36E060EF3CFDBFF020EF36EB4
:1011D000070EF3CFDBFF020EE66ED9CFE9FFDACFC1
:1011E000EAFFEECFE6FFEECFE6FFEECFE6FFEECF73
:1011F000E6FFEECFE6FFEECFE6FFEECFE6FFEECF67
:10120000E6FFEECFE6FFEECFE6FFEECFE6FFEECF56
:10121000E6FFEECFE6FFEECFE6FFEECFE6FF69ECAE
:101220000CF0146E100EE15E1450000901E1D3D7EA
:1012300016EC10F006C06BF007C06CF008C06DF043
:1012400009C06EF016EC10F000016751065C146ED8
:1012500068510758156E69510858166E6A51095839
:10126000176ED880640E1454000E1554000E1654D8
:10127000000E17540BE2827216EC10F006C067F0F5
:1012800007C068F008C069F009C06AF016EC10F0F9
:1012900000016F51065C146E70510758156E715144
:1012A0000858166E72510958176ED880C80E14541B
:1012B000000E1554000E1654000E175415E273510B
:1012C00003E1010E736F01D0736B73C0E6FFA7ECEF
:1012D0000DF0E55216EC10F006C06FF007C070F08C
:1012E00008C071F009C072F0B4EC0EF000096BE0B8
:1012F000D9500F0FE66E000EDA20E66ED950100FAF
:10130000E66E000EDA20E66ED2EC0DF0E552E55204
:10131000E552E552010EDF6E0001735102E1020E4B
:1013200001D0030E146E156A14BE1568010E14C0A8
:10133000DBFF020E15C0DBFF030E62C0DBFF040EF5
:1013400060C0DBFF050E61C0DBFF020EF36E060E10
:10135000F3CFDBFF100EDB50E76E080EE7CFDBFFAD
:101360000F0EDB50E76E070EE7CFDBFF020EE66ED7
:10137000D9CFE9FFDACFEAFFEECFE6FFEECFE6FF07
:10138000EECFE6FFEECFE6FFEECFE6FFEECFE6FFD5
:10139000EECFE6FFEECFE6FFEECFE6FFEECFE6FFC5
:1013A000EECFE6FFEECFE6FFEECFE6FFEECFE6FFB5
:1013B000EECFE6FF69EC0CF0146E100EE15E1450F7
:1013C000000901E1D3D7D3D6110EE15C02E2E16A54
:1013D000E552E16EE552E7CFD9FF1200DACFE4FF24
:1013E000E2CFDAFFE9CFE4FFEACFE4FFF6CFE4FF94
:1013F000F7CFE4FFF5CFE4FFF3CFE4FFF4CFE4FF52
:10140000FACFE4FF00EE00F0140EE80403E3EECFA1
:10141000E4FFFBD700EE14F00E0EE80403E3EECF7A
:10142000E4FFFBD7E65204007EEC0BF020EC10F05A
:10143000E55200EE21F00E0EE80403E3E5CFEDFFE8
:10144000FBD700EE13F0140EE80403E3E5CFEDFF45
:10145000FBD7E5CFFAFFE5CFF4FFE5CFF3FFE5CF0C
:10146000F5FFE5CFF7FFE5CFF6FFE5CFEAFFE5CFE4
:10147000E9FFE5CFDAFF1100DACFE4FFE2CFDAFFD0
:10148000E9CFE4FFEACFE4FFF6CFE4FFF7CFE4FFD4
:10149000F5CFE4FFF3CFE4FFF4CFE4FFFACFE4FFAE
:1014A00000EE00F0140EE80403E3EECFE4FFFBD7F8
:1014B00000EE14F00E0EE80403E3EECFE4FFFBD7DA
:1014C000E65253EC0DF0E55200EE21F00E0EE8046A
:1014D00003E3E5CFEDFFFBD700EE13F0140EE804B5
:1014E00003E3E5CFEDFFFBD7E5CFFAFFE5CFF4FF50
:1014F000E5CFF3FFE5CFF5FFE5CFF7FFE5CFF6FF4B
:10150000E5CFEAFFE5CFE9FFE5CFDAFF11009492DE
:10151000F28EF28CD08E1200D9CFE6FFE1CFD9FF48
:101520000F0EE1260400F00EDB5001E0B2D0F30E06
:10153000DB500001625D01E0ABD0FC0EDBCF16F0AA
:1015400016C017F0166AFB0EDB5000011624146E4D
:10155000000E1720156E00016051141802E1615150
:10156000151801E095D0F10EDBCF08F0F20EDBCFBD
:1015700009F0060E081801E1095008E0010E0818EC
:1015800001E1095001E084D0FF0082D0F80EDBCFEA
:1015900014F014C015F0146AF70EDB500001142487
:1015A000606F000E1520616FF90EDBCF62F0F80E50
:1015B000DBCFE6FF010EE66EE66ADDEC0EF0E552EB
:1015C000E552E552F70EDBCFE6FF020EE66EE66A65
:1015D000DDEC0EF0E552E552E552F90EDBCFE6FF09
:1015E000030EE66EE66ADDEC0EF0E552E552E552DA
:1015F0002A0EE66E000EE66EE66ADDEC0EF0E552AF
:10160000E552E552DF6A040EF36E010EF3CFDBFF05
:10161000020EDB6A030E62C0DBFF040E60C0DBFF5C
:10162000050E61C0DBFF080EF36E060EF3CFDBFF85
:101630000B0EDB6A020EE66ED9CFE9FFDACFEAFFC6
:10164000EECFE6FFEECFE6FFEECFE6FFEECFE6FF12
:10165000EECFE6FFEECFE6FFEECFE6FFEECFE6FF02
:10166000EECFE6FFEECFE6FFEECFE6FFEECFE6FFF2
:10167000EECFE6FFEECFE6FFEECFE6FF69EC0CF033
:10168000146E100EE15E1450000901E1D3D700D0B2
:1016900000D00F0EE15C02E2E16AE552E16EE55234
:0616A000E7CFD9FF1200A4
:0A16A600800E6F6EE00E6E148008D7
:1016B00001E0FBD7706A709E708C040E7010706E23
:1016C000718E719A71987186719471927180729E07
:1016D000729C729472927280776A778E779C608C1B
:1016E000609A0D01FC6BA46A030EA36EA56EFA69E5
:1016F0006F6AE00E6E1401E0FCD71200A450020BDA
:1017000006E1A450020B03E1A450010B16E00F0EFA
:101710006F141009146E000E77141410776E60BEEB
:101720000DD8A4A202D0A49208D0A4A202D0A49260
:1017300004D0A4A002D0A49000D01200D9CFE6FF1C
:10174000E1CFD9FF0F0EE126F00E6114E8380F0B40
:10175000DF6E0F0E61141A6E1B6A060ED8901A36D1
:101760001B36E804FBE1E00E62141C6E1D6AD89083
:101770001D321C32D8901D321C321A501C24186E97
:101780001B501D20196E030E62141E6E1F6AD89026
:101790001E361F3618501E24166E19501F20176E45
:1017A000800E6314206E216A070ED89021322032F9
:1017B000E804FBE116502024146E17502120156E0A
:1017C000010E14C0DBFF020E15C0DBFF7E0E63149A
:1017D000E8407F0BE76E030EE7CFDBFF010E6314DB
:1017E000166E16C017F0166A645000011624146EA7
:1017F000000E1720156E040E14C0DBFF050E15C079
:10180000DBFF6550010B166E6550020B01E0010E07
:10181000E824156E6550040B01E0010E040DF3CFB2
:1018200014F06550080B01E0010E080DF35014246C
:1018300015241624E76E060EE7CFDBFF070E66CFF2
:10184000DBFF080E67CFDBFF090E68CFDBFF0A0E58
:1018500069CFDBFF0B0E6ACFDBFF0C0E6BCFDBFF1C
:101860000D0E6CCFDBFF0E0E6DCFDBFF609ED9CF70
:10187000E9FFDACFEAFFEECFE6FFEECFE6FFEECFED
:10188000E6FFEECFE6FFEECFE6FFEECFE6FFEECFD0
:10189000E6FFEECFE6FFEECFE6FFEECFE6FFEECFC0
:1018A000E6FFEECFE6FFEECFE6FFEECFE6FFEECFB0
:1018B000E6FF8CEC0AF0146E0F0EE15E14500F0E72
:1018C000E15C02E2E16AE552E16EE552E7CFD9FF61
:1018D0001200D9CFE6FFE1CFD9FF0F0140B704D006
:1018E000000E77140309776E0F0130B704D0000E95
:1018F00077140409776E0F0120B705D0000E771416
:101900000509776E02D0000EB0D0EF0EDBCF14F0D9
:1019100014340EE2EF0EDBCF15F0030EE76E151850
:10192000E8AE02D0153403D0E750D880155402E257
:10193000EF0EDB6AF10EDBCF14F0F20EDBCF15F009
:10194000C00E1416030E1516060ED890153214325A
:10195000E804FBE1F00EDB500F0B100DF3501424E4
:10196000616E060EE76EF10EDBCF16F0F20EDBCFE6
:1019700017F0E7501616176AD890173216323F0E36
:10198000E76EF10EDBCF14F0F20EDBCF15F0E7506F
:101990001416156AD89014361536D89014361536A4
:1019A00014501624626EF40EDBCF16F0F50EDBCF6A
:1019B00017F0000E1616010E171617C016F0176A4C
:1019C000010EE76EF10EDBCF14F0F20EDBCF15F057
:1019D000E7501416156A070ED89014361536E80429
:1019E000FBE1F30EDB503F0BE82414241624636E56
:1019F000FF0EE76EF40EDBCF14F0F50EDBCF15F023
:101A0000E7501416156A1450646E656AF60EDB50C2
:101A1000080803E2080E656E03D0F60EDB50656E13
:101A2000659CF70EDB50666EF80EDB50676EF90EA4
:101A3000DB50686EFA0EDB50696EFB0EDB506A6E8F
:101A4000FC0EDB506B6EFD0EDB506C6EFE0EDB5041
:101A50006D6E6286EF0EDBCFE6FFFC0E6014E55282
:101A6000E710606E6086010E00D0E552E7CFD9FF27
:021A7000120062
:0E1A7200D9CFE6FFE1CFD9FFFD0EDB500F0B01
:101A8000146EFE0EDB50010B100DF3501410C16EDE
:101A9000C26AAB0EC06EC2809E9C9D8C9F9CE5521C
:101AA000E7CFD9FF12009D50400B50E09E50400BF5
:101AB0004DE09E9CC450186E18C019F0186AC350AF
:101AC00000011810146E19C015F0166A176A15AEC9
:101AD00002D016681768145000017E2715507F2326
:101AE0001650802317508123822B000E8323320E41
:101AF000825D000E835924E382C014F083C015F088
:101B0000166A176A7EC006F07FC007F080C008F032
:101B100081C009F014C00BF015C00CF016C00DF018
:101B200017C00EF0E8EC0FF006C07EF007C07FF0A3
:101B300008C080F009C081F00001010E886F06D056
:101B4000640EE66E50EC10F0E552C2821200D9CF5E
:101B5000E6FFE1CFD9FFFE0EDB500F0802E2000ED8
:101B600015D000017E6B7F6B806B816B826B836B0A
:101B7000C30EC214146EFE0EDB50040DF35014108D
:101B8000C26E0001886BC282010E00D0E552E7CF21
:101B9000D9FF12000001886B7EC0F3FF7FC0F4FF05
:101BA00000D01200D9CFE6FFE1CFD9FF080EE12621
:101BB000DE6ADD6A7EC018F07FC019F080C01AF0BE
:101BC00081C01BF0270E0B6E0C6A0D6A0E6A18C0DE
:101BD00006F019C007F01AC008F01BC009F0B0ECFD
:101BE0000FF002C018F003C019F004C01AF005C0CD
:101BF0001BF0040ED8901B321A3219321832E80644
:101C0000F9E118C014F019C015F01AC016F01BC085
:101C100017F0F30E145E010E155A000E165A175ADD
:101C2000060E14C0DBFF070E15C0DBFF0A0E146E94
:101C3000156A060EDBCF08F0070EDBCF09F014C0E3
:101C40000DF015C00EF00EEC0FF0020E08C0DBFF19
:101C5000030E09C0DBFF060EDBCF16F0070EDBCF4D
:101C600017F00A0E086E096A020EDBCF0DF0030EA4
:101C7000DBCF0EF034EC0FF00650165C146E0750FC
:101C80001758156E040E14C0DBFF050E15C0DBFFE0
:101C9000040EDBCF14F0050EDBCF15F00001800E33
:101CA000151412E1040EDBCF16F0050EDBCF17F092
:101CB000173404E216500208000E175405E3040E10
:101CC000DB6A050EDB6A2CD0040EDBCF14F0050EA8
:101CD000DBCF15F0D890155004E6030E145C000E0F
:101CE000155815E3040EDBCF16F0050EDBCF17F009
:101CF000173404E216500708000E175408E3050EC7
:101D0000F36E040EF3CFDBFF050EDB6A09D0040E81
:101D1000DB6A050EDB6A020EDB2A030E01E3DB2A17
:101D2000020EDBCF08F0030EDBCF09F0FD0E08C07A
:101D3000DBFFFE0E09C0DBFF040EDBCF08F0050E53
:101D4000DBCF09F0FB0E08C0DBFFFC0E09C0DBFF98
:101D50000001886B080EE15C02E2E16AE552E16E87
:101D6000E552E7CFD9FF12000001885100D01200E0
:101D7000D9CFE6FFE1CFD9FFFD0EDBCF14F0FE0E89
:101D8000DBCF15F015C014F0156A1450AA6EFF0EC3
:101D9000E76EFD0EDBCF14F0FE0EDBCF15F0E75043
:101DA0001416156A1450A96EA69EA69CA680A8506B
:101DB00000D0E552E7CFD9FF1200D9CFE6FFE1CF3F
:101DC000D9FFA198FD0EDBCF14F0FE0EDBCF15F08E
:101DD00015C014F0156A1450AA6EFF0EE76EFD0EC2
:101DE000DBCF14F0FE0EDBCF15F0E7501416156AAA
:101DF0001450A96EFC0EDB50A86EA69EA69CA6846D
:101E0000F29E550EA76EAA0EA76EA682F28EA1A80C
:0C1E1000FED7A694E552E7CFD9FF1200E0
:041E1C00006A0EAE9C
:101E200017EF0FF00D6C0E1EE86A0E22001E09AEB1
:101E30001FEF0FF0086C091EE86A0922001E2EEC45
:101E400010F009BE2FEF0FF000AE000C086C091E59
:101E5000E86A0922046C051EE86A0522000C00BE2F
:101E600026EF0FF00188FF0C09C013F008C012F034
:101E700008500D02F4CF07F0F3CF06F009500E0220
:101E8000F4CF09F0F3CF08F00D02F3500726F45019
:101E90000822E86A092212500E02F3500726F45075
:101EA0000822E86A09220EAE5AEF0FF01250085EBF
:101EB0001350095A13AE000C0D50085E0E50095A0B
:021EC000000C14
:0E1EC2002A0EF66E100EF76E000EF86E00017E
:101ED0000900F550796F0900F5507A6F03E17967D1
:101EE00001D03DD00900F550746F0900F550756FB1
:101EF0000900F550766F09000900F550E96E0900F8
:101F0000F550EA6E090009000900F550776F0900E5
:101F1000F550786F09000900F6CF7BF0F7CF7CF021
:101F2000F8CF7DF074C0F6FF75C0F7FF76C0F8FFFC
:101F30000001775302E1785307E00900F550EE6E97
:101F40007707F8E27807F9D77BC0F6FF7CC0F7FF88
:101F50007DC0F8FF00017907000E7A5BBFD7120041
:101F600006500B02F3CF02F0F4CF03F00C02F35053
:101F70000326000EF420046E06500D02F3500426D2
:101F8000000EF420056E06500E02F3500526075091
:101F90000B02F3500326F4500422000E05220750D2
:101FA0000C02F3500426F450052207500D02F350A2
:101FB000052608500B02F3500426F4500522085061
:101FC0000C02F350052609500B02F35005261200AF
:101FD000056A046A036A026A200EE76ED890063624
:101FE00007360836093602360336043605360B50F6
:101FF000025C0C5003580D5004580E50055809E36C
:102000000B50025E0C50035A0D50045A0E50055AE4
:08201000062AE72EE4D71200B6
:08201800790ED66EFE0ED76EA4
:10202000070ED56ED58EF284F28A120084C006F0B7
:1020300085C007F086C008F087C009F000D0120004
:10204000F2A40BD0FE0ED76E790ED66E0001842B53
:0C205000000E852386238723F2941200E3
:04205C00056A046AA3
:10206000100EE76ED89008360936043605360D5046
:10207000045C0E50055805E30D50045E0E50055AE1
:08208000082AE72EF0D7120038
:082088001CEE00F02CEE00F04C
:10209000F86A019C61EC0FF028EC08F0FDD7120003
:1020A000FF0EE350E84E1200000000D000D000D038
:0620B000E82EFAD7120031
:0120B6000029
:0420B7000000000025
:0520BB007800000000A8
:0F20C00000000000000000000000000000000011
:00000001FF
