:020000040000FA
:06000000EAEF0EF0120011
:06100000EAEF0EF0120001
:061008001AEF0DF01200CA
:0610180067EF0DF012006D
:06102A000400041E00009A
:101030009300000003000000F21D00007300000098
:1010400012000000EE1D00008F00000004000000F0
:0C105000EC1D00009600000002000000F3
:04105C00800E6F6E25
:10106000E00E6E14800801E0FBD7040E706ED10E06
:10107000716E810E726E776A778E779C608C609A43
:101080000D01FC6BA46A030EA36EA56EFA696F6A6C
:10109000E00E6E1401E0FCD7C8EC0EF0000EE66E18
:1010A000E66A23EC0EF0E552E5522A082BE1010E28
:1010B000E66EE66A23EC0EF0E552E552146E14C0BB
:1010C00015F0146A14C0E6FF15C0E6FF020EE66EC6
:1010D000E66A23EC0EF0E552E552E552E7CF15F053
:1010E000E552E7CF14F000011424936F000E152091
:1010F000946F030EE66EE66A23EC0EF0E552E552BD
:101100000001956F0001646B080E656F666B010E40
:101110006A6F6B6F020EE66E64C0E6FF65C0E6FFA5
:1011200066C0E6FF67C0E6FF68C0E6FF69C0E6FF8D
:101130006AC0E6FF6BC0E6FF6CC0E6FF6DC0E6FF6D
:101140006EC0E6FF6FC0E6FF70C0E6FF71C0E6FF4D
:1011500072C0E6FFEDD9146E100EE15E145012005D
:10116000A450020B06E1A450020B03E1A450010BB2
:1011700016E00F0E6F141009146E000E7714141081
:10118000776E60BE67D8A4A202D0A49262D0A4A257
:1011900002D0A4925ED0A4A002D0A4905AD0DCECDD
:1011A0000EF0D2EC0EF000016051045C146E0001F0
:1011B00061510558156E000162510658166E000106
:1011C00063510758176ED880F40E1454010E15544D
:1011D000000E1654000E17543BE20001646B080E1B
:1011E0000001656F666B0001010E6A6F0001020E5F
:1011F0006B6F020EE66E64C0E6FF65C0E6FF66C078
:10120000E6FF67C0E6FF68C0E6FF69C0E6FF6AC0A8
:10121000E6FF6BC0E6FF6CC0E6FF6DC0E6FF6EC088
:10122000E6FF6FC0E6FF70C0E6FF71C0E6FF72C068
:10123000E6FF7ED9146E100EE15E1450D2EC0EF073
:1012400004C060F005C061F006C062F007C063F042
:1012500004001200D9CFE6FFE1CFD9FF0F0EE1263F
:10126000F00E6114E8380F0BDF6E0F0E61141A6E6A
:101270001B6A060ED8901A361B36E804FBE1E00E16
:1012800062141C6E1D6AD8901D321C32D8901D321B
:101290001C321A501C24186E1B501D20196E030E90
:1012A00062141E6E1F6AD8901E361F3618501E24F8
:1012B000166E19501F20176E800E6314206E216A5F
:1012C000070ED89021322032E804FBE1165020248A
:1012D000146E17502120156E010E14C0DBFF020E94
:1012E00015C0DBFF7E0E6314E8407F0BE76E030E34
:1012F000E7CFDBFF010E6314166E16C017F0166AF7
:10130000645000011624146E000E1720156E040E92
:1013100014C0DBFF050E15C0DBFF6550010B166E18
:101320006550020B01E0010EE824156E6550040BB8
:1013300001E0010E040DF3CF14F06550080B01E03D
:10134000010E080DF350142415241624E76E060E22
:10135000E7CFDBFF070E66CFDBFF080E67CFDBFFB3
:10136000090E68CFDBFF0A0E69CFDBFF0B0E6ACFD9
:10137000DBFF0C0E6BCFDBFF0D0E6CCFDBFF0E0E19
:101380006DCFDBFF609EDF5001E0A0D0030EDB508D
:101390000001955D01E09AD00C0EDBCF16F016C06F
:1013A00017F0166A0B0EDB5000011624146E000EA7
:1013B0001720156E00019351141802E1945115186D
:1013C00001E084D0D950010FE96EDACFEAFF010EB7
:1013D000EE1801E1ED5001E1FF00D950010FE96E77
:1013E000DACFEAFF060EEE1801E1ED506FE1080ECC
:1013F000DBCF14F014C015F0146A070EDB500001A7
:101400001424936F000E1520946F090EDBCF95F016
:10141000080EDBCFE6FF010EE66EE66A48EC0EF042
:10142000E552E552E552070EDBCFE6FF020EE66E0F
:10143000E66A48EC0EF0E552E552E552090EDBCFC4
:10144000E6FF030EE66EE66A48EC0EF0E552E55262
:10145000E5522A0EE66E000EE66EE66A48EC0EF0E5
:10146000E552E552E5520001646B040E0001656F20
:10147000666B0001080E6A6F00016F6B020EE66E6C
:1014800064C0E6FF65C0E6FF66C0E6FF67C0E6FF32
:1014900068C0E6FF69C0E6FF6AC0E6FF6BC0E6FF12
:1014A0006CC0E6FF6DC0E6FF6EC0E6FF6FC0E6FFF2
:1014B00070C0E6FF71C0E6FF72C0E6FF39D8146E57
:1014C000100EE15E1450000901E1D8D7D9CFE9FF31
:1014D000DACFEAFFEECFE6FFEECFE6FFEECFE6FF94
:1014E000EECFE6FFEECFE6FFEECFE6FFEECFE6FF74
:1014F000EECFE6FFEECFE6FFEECFE6FFEECFE6FF64
:10150000EECFE6FFEECFE6FFEECFE6FFEECFE6FF53
:1015100077EC0DF0146E0F0EE15E14500F0EE15CCF
:1015200002E2E16AE552E16EE552E7CFD9FF12002F
:10153000D9CFE6FFE1CFD9FF0F0140B704D0000EAD
:1015400077140309776E0F0130B704D0000E7714BB
:101550000409776E0F0120B705D0000E7714050936
:10156000776E02D0000EB9D0EF0EDBCF14F014343A
:101570000EE2EF0EDBCF15F0030EE76E1518E8AEA6
:1015800002D0153403D0E750D880155402E2EF0E94
:10159000DB6AF30E95C0DBFFF40E93C0DBFFF50EA4
:1015A00094C0DBFFF10EDBCF14F0F20EDBCF15F0B1
:1015B000C00E1416030E1516060ED89015321432EE
:1015C000E804FBE1F00EDB500F0B100DF350142478
:1015D000616E060EE76EF10EDBCF16F0F20EDBCF7A
:1015E00017F0E7501616176AD890173216323F0ECA
:1015F000E76EF10EDBCF14F0F20EDBCF15F0E75003
:101600001416156AD89014361536D8901436153637
:1016100014501624626EF40EDBCF16F0F50EDBCFFD
:1016200017F0000E1616010E171617C016F0176ADF
:10163000010EE76EF10EDBCF14F0F20EDBCF15F0EA
:10164000E7501416156A070ED89014361536E804BC
:10165000FBE1F30EDB503F0BE82414241624636EE9
:10166000FF0EE76EF40EDBCF14F0F50EDBCF15F0B6
:10167000E7501416156A1450646E656AF60EDB5056
:10168000080803E2080E656E03D0F60EDB50656EA7
:10169000659CF70EDB50666EF80EDB50676EF90E38
:1016A000DB50686EFA0EDB50696EFB0EDB506A6E23
:1016B000FC0EDB506B6EFD0EDB506C6EFE0EDB50D5
:1016C0006D6E6286EF0EDBCFE6FFFC0E6014E55216
:1016D000E710606E6086010E00D0E552E7CFD9FFBB
:0216E0001200F6
:0E16E2000F9E08D00F9E07AE05D0066C071EA7
:1016F000E86A07220F8E07C001F006C000F0136AE7
:10170000126A8E0E026E036A3EEF0CF00F6A7AECDC
:101710000CF092EC0CF00FB622EF0CF00FA205D0FB
:101720000FB822EF0CF029EF0CF00FAA05D00FB084
:1017300022EF0CF029EF0CF00FB002D00FA802D06E
:1017400035EF0CF0036A0D500824026EE86A03229C
:101750007E0E025EE86A035A126A136A006A016A20
:101760000C500702F4CF01F0F3CF00F00B5007024A
:10177000F3501326F4500022000E01220C500602F2
:10178000F3501326F4500022000E01220A500702E3
:10179000F3501226F4501322000E002201220B50A7
:1017A0000602F3501226F4501322000E00220122EA
:1017B0000C500502F3501226F4501322000E0022A2
:1017C00001220A500602F4501226000E13220022B3
:1017D00001220B500502F4501226000E13220022A3
:1017E00001223EEF0CF00F6A7AEC0CF00FB6FDEF21
:1017F0000BF00FA20ED00FB405D07F0E076EFF0EB8
:10180000066E1FD0800E076E066A1BD0076A066A36
:1018100018D00FB0FBD78F0E0860EDD77E0E08648E
:10182000F5D78E0E085C05E0D89007320632082AFC
:10183000F8D70FA406D0066C071EE86A072207AE89
:10184000E5D712007F0E086EFF0E076E066E056E5E
:1018500012007F0E0FBEFF0E086E02D07F0E086EC4
:10186000800E076E066A056AF3D70FAE04D0800EAD
:10187000086E076AF7D7086A076AF4D701500010A4
:1018800013101210F8E003BEF0D701BE0CD00250C6
:101890000310EBE0D89012361336003601360206FC
:1018A000D8A00306F2D70350D4E10228D2E012AE4A
:1018B00011D07F0E121402E113A00CD0132AE86A93
:1018C0000022012207E3D880013200321332022ABB
:1018D0000228BFE00250C9E013C005F000C006F0C6
:1018E0000134076E0230086E0732089E0FBE088E64
:1018F00028EF0CF00736083602E30F840F7E06E16E
:101900000F80086A076A066A056A1200082803E061
:10191000D88007321200D890073202E10F821200FD
:101920000F8612000C360D3602E30F8C0F7E06E197
:101930000F880D6A0C6A0B6A0A6A12000D2803E010
:10194000D8800C321200D8900C32EAE10F8A1200D3
:10195000D9CFE6FFE1CFD9FF0F0EE126C1D82EEC9B
:1019600008F086EC0DF0828AD2EC0EF0000177517F
:10197000045C146E78510558156E79510658166E30
:101980007A510758176ED880640E1454000E1554FF
:10199000000E1654000E17540BE28272D2EC0EF0B9
:1019A00004C077F005C078F006C079F007C07AF07F
:1019B000D2EC0EF000018151045C146E8251055886
:1019C000156E83510658166E84510758176ED880CD
:1019D000C80E1454000E1554000E1654000E175461
:1019E0001EE2000EE76E8019E8AE02D0803503D00B
:1019F000E750D880805502E2BA0E01D0460E806FC3
:101A000080C0E6FF9AEC0DF0E552D2EC0EF004C077
:101A100081F005C082F006C083F007C084F0A4D72F
:101A20000F0EE15C02E2E16AE552E16EE552E7CFBA
:101A3000D9FF1200DACFE4FFE2CFDAFFE9CFE4FF0B
:101A4000EACFE4FFF6CFE4FFF7CFE4FFF5CFE4FF02
:101A5000F3CFE4FFF4CFE4FFFACFE4FF00EE00F0B1
:101A6000140EE80403E3EECFE4FFFBD700EE14F01E
:101A70000F0EE80403E3EECFE4FFFBD7E652B0EC31
:101A800008F00CEC0EF0E55200EE22F00F0EE80428
:101A900003E3E5CFEDFFFBD700EE13F0140EE804EF
:101AA00003E3E5CFEDFFFBD7E5CFFAFFE5CFF4FF8A
:101AB000E5CFF3FFE5CFF5FFE5CFF7FFE5CFF6FF85
:101AC000E5CFEAFFE5CFE9FFE5CFDAFF1100DACF96
:101AD000E4FFE2CFDAFFE652E552E5CFDAFF11008C
:101AE00094929498949AF28EF28CD08E1200D9CF60
:101AF000E6FFE1CFD9FF0F0EE126E15C02E2E16AE9
:0C1B0000E552E16EE552E7CFD9FF12007C
:041B0C00C10ECD6ECB
:101B1000000E00019615146EFF0E9715156E15C078
:101B200014F0156A1450CF6E9651CE6E9E909D8023
:101B30009F801200D9CFE6FFE1CFD9FFFE0EDBCFA9
:101B400014F0A60EE76E1418E8AE02D0E73402D007
:101B5000E750145C06E20001780E966FEC0E976F6A
:101B600057D0FE0EDBCF14F05A0EE76E1418E8AE15
:101B700002D0143403D0E750D880145406E2000198
:101B8000580E966F9E0E976F43D0780E176EEC0E20
:101B9000186E196AFE0EDBCF21F0226A21BE226880
:101BA0005A0E2126000E222221C006F022C007F084
:101BB00073EC0BF005C01DF006C01EF007C01FF04F
:101BC00008C020F0D50E0A6E380E0B6EDE0E0C6EBD
:101BD000420E0D6E1DC005F01EC006F01FC007F0BE
:101BE00020C008F086EC0BF0F3EC0BF006C01AF006
:101BF00007C01BF01C6A1A50175C146E1B50185853
:101C0000156E1C501958166E14C096F015C097F03A
:101C1000E552E7CFD9FF12009E50010B13E09D5013
:101C2000010B10E0000E00019615146EFF0E9715C3
:101C3000156E15C014F0156A1450CF6E9651CE6E05
:061C400082789E90120064
:0A1C4600D9CFE6FFE1CFD9FFFD0E74
:101C5000DBCF14F0FE0EDBCF15F015C014F0156AC3
:101C60001450AA6EFF0EE76EFD0EDBCF14F0FE0ED1
:101C7000DBCF15F0E7501416156A1450A96EA69E16
:101C8000A69CA680A85000D0E552E7CFD9FF12004D
:101C9000D9CFE6FFE1CFD9FFA198FD0EDBCF14F03D
:101CA000FE0EDBCF15F015C014F0156A1450AA6EA5
:101CB000FF0EE76EFD0EDBCF14F0FE0EDBCF15F04E
:101CC000E7501416156A1450A96EFC0EDB50A86E6E
:101CD000A69EA69CA684F29E550EA76EAA0EA76E7F
:101CE000A682F28EA1A8FED7A694E552E7CFD9FF2F
:021CF0001200E0
:0E1CF2002A0EF66E100EF76E000EF86E000150
:101D00000900F5508A6F0900F5508B6F03E18A676F
:101D100001D03DD00900F550856F0900F550866F60
:101D20000900F550876F09000900F550E96E0900B8
:101D3000F550EA6E090009000900F550886F0900A6
:101D4000F550896F09000900F6CF8CF0F7CF8DF0C0
:101D5000F8CF8EF085C0F6FF86C0F7FF87C0F8FF8A
:101D60000001885302E1895307E00900F550EE6E47
:101D70008807F8E28907F9D78CC0F6FF8DC0F7FF16
:101D80008EC0F8FF00018A07000E8B5BBFD71200E0
:101D9000790ED66EFE0ED76E070ED56ED58EF284F6
:101DA000F28A12008FC004F090C005F091C006F0D6
:101DB00092C007F000D01200F2A40BD0FE0ED76E36
:101DC000790ED66E00018F2B000E90239123922363
:041DD000F294120077
:0C1DD4001CEE00F02CEE00F0F86A0F9CF2
:0C1DE00079EC0EF0A8EC0CF0FDD712001E
:021DEC0068C5C8
:021DEE000000F3
:021DF0000000F1
:0E1DF20000000000000000000000000001469C
:041E000000000000DE
:031E040078000063
:00000001FF
