:020000040000FA
:060000005EEF1FF012008C
:063000005EEF1FF012005C
:06300800CEEF1DF01200E6
:063018001BEF1EF0120088
:06302A000400EA3E000074
:103030009500000002000000E03E00007F0000005C
:103040000A000000D83E00008900000008000000CF
:0C305000D43E00009100000004000000CD
:04305C00800E6F6E05
:10306000E00E6E14800801E0FBD7040E706ED10EE6
:10307000716E810E726E776A778E779C608C609A23
:103080000D01FC6BA46A030EA36EA56EFA696F6A4C
:10309000E00E6E1401E0FCD73CEC1FF0000EE66E73
:1030A000E66A97EC1EF0E552E5522A080AE1010EA5
:1030B000E66EE66A97EC1EF0E552E5520001956F68
:1030C000966B0001010E646F656B666F676B6C6BCE
:1030D000020EE66E64C0E6FF65C0E6FF66C0E6FF6E
:1030E00067C0E6FF68C0E6FF69C0E6FF6AC0E6FFAA
:1030F0006BC0E6FF6CC0E6FF6DC0E6FF6EC0E6FF8A
:103100006FC0E6FF70C0E6FF71C0E6FF72C0E6FF69
:1031100073C0E6FF74C0E6FFC8D90B6E120EE15E05
:103120000B50000901E1D4D712000400A450020B97
:1031300006E1A450020B03E1A450010B16E00F0EB0
:103140006F1410090B6E000E77140B10776E60BEB3
:1031500069D8A4A202D0A49264D0A4A202D0A4925E
:1031600060D0A4A002D0A4905CD050EC1FF046EC3C
:103170001FF000016051045C0B6E000161510558A5
:103180000C6E0001625106580D6E00016351075824
:103190000E6ED880F40E0B54010E0C54000E0D541C
:1031A000000E0E543EE20001010E646F0001656BDB
:1031B000020E0001666F676B00016C6B020EE66E1B
:1031C00064C0E6FF65C0E6FF66C0E6FF67C0E6FFD5
:1031D00068C0E6FF69C0E6FF6AC0E6FF6BC0E6FFB5
:1031E0006CC0E6FF6DC0E6FF6EC0E6FF6FC0E6FF95
:1031F00070C0E6FF71C0E6FF72C0E6FF73C0E6FF75
:1032000074C0E6FF52D90B6E120EE15E0B5046EC15
:103210001FF004C060F005C061F006C062F007C096
:1032200063F01200D9CFE6FFE1CFD9FF110EE126FE
:10323000060E0B6E0C0E61140BC0E7FFE75204E0A4
:10324000E8427F0BE706FCE1DF6EDF5022E1380E3B
:103250006114E840E840E8401F0BE76E040EE7CF3A
:10326000DBFF030E62140C6EE00E6214E840E840CF
:10327000E8401F0B0B6E070E6114200DF3500B245A
:103280000C24E76E050EE7CFDBFF060E63CFDBFFF6
:1032900039D03C0E6114E840E8403F0BE76E010E68
:1032A000E7CFDBFF030E6114116E126A1138116A49
:1032B000E834E00B126EE00E6214136E146A050E11
:1032C000D89013361436E804FBE1115013240F6E26
:1032D00012501420106E030E6214000EF350000101
:1032E0000F240D6E000E10200E6E635000010D2491
:1032F0000B6E000E0E200C6E020E0BC0DBFF030ED9
:103300000CC0DBFF070E64CFDBFF6550010B0D6EB9
:103310006550020B01E0010EE8240C6E6550040BB1
:1033200001E0010E040DF3CF0BF06550080B01E036
:10333000010E080DF3500B240C240D24E76E080E2B
:10334000E7CFDBFF090E66CFDBFF0A0E67CFDBFF9F
:103350000B0E68CFDBFF0C0E69CFDBFF0D0E6ACFC3
:10336000DBFF0E0E6BCFDBFF0F0E6CCFDBFF100E03
:103370006DCFDBFF609EDF5060E1060EDB500B6E11
:103380000C6A000195510B1802E196510C1855E199
:10339000040EDB5001E1FF00040EDB5007084DE195
:1033A000090EDB500001956F966B090EDBCFE6FF2F
:1033B000010EE66EE66ABCEC1EF0E552E552E552FF
:1033C0002A0EE66E000EE66EE66ABCEC1EF0E552D2
:1033D000E552E5520001646B0001040E686F0001C4
:1033E0006C6B020EE66E64C0E6FF65C0E6FF66C069
:1033F000E6FF67C0E6FF68C0E6FF69C0E6FF6AC097
:10340000E6FF6BC0E6FF6CC0E6FF6DC0E6FF6EC076
:10341000E6FF6FC0E6FF70C0E6FF71C0E6FF72C056
:10342000E6FF73C0E6FF74C0E6FF3FD80B6E120ED6
:10343000E15E0B50000901E1D4D7DF042CE1D9CFC4
:10344000E9FFDACFEAFFEECFE6FFEECFE6FFEECF01
:10345000E6FFEECFE6FFEECFE6FFEECFE6FFEECFE4
:10346000E6FFEECFE6FFEECFE6FFEECFE6FFEECFD4
:10347000E6FFEECFE6FFEECFE6FFEECFE6FFEECFC4
:10348000E6FFEECFE6FFEECFE6FF29EC1EF00B6E77
:10349000110EE15E0B50110EE15C02E2E16AE552B1
:1034A000E16EE552E7CFD9FF1200D9CFE6FFE1CFB9
:1034B000D9FF0F0140B704D0000E77140309776ECF
:1034C0000F0130B704D0000E77140409776E0F0196
:1034D00020B705D0000E77140509776E02D0000ED4
:1034E000BDD0ED0EDBCF0BF00B340EE2ED0EDBCFDB
:1034F0000CF0030EE76E0C18E8AE02D00C3403D0CB
:10350000E750D8800C5402E2ED0EDB6AEE0EDB5081
:1035100024E1F30EDB50E00BE00BE838E8400C6EE2
:10352000F20EDB50070B080DF3CF0BF0EE0EDB5065
:10353000030B400DF3500B240C24616EF30EDB5093
:10354000030B0B6EF30EDB501C0B080DF3500B241A
:10355000626EF40EDB50636E4FD0EF0EDB500F0B3C
:10356000040DF3CF0DF0EE0EDB50030B400DF350C6
:103570000D240B6E0C6A0BBE0C68F00EDBCF0EF048
:10358000F10EDBCF0FF0000E0E16600E0F160F3887
:103590000F6AE830070B0E6E0B500E24616EF00EB2
:1035A000DBCF0BF0F10EDBCF0CF0000E0B161C0E78
:1035B0000C16050ED8900C320B32E804FBE1F00E2D
:1035C000DBCF0DF0F10EDBCF0EF0000E0D16030E6B
:1035D0000E160EC00DF00E6A0B500D24626EFF0E1B
:1035E000E76EF00EDBCF0BF0F10EDBCF0CF0E75007
:1035F0000B160C6A0B50636E95C064FF656AF60E7D
:10360000DB50080803E2080E656E03D0F60EDB50AF
:10361000656E659CF70EDB50666EF80EDB50676ECC
:10362000F90EDB50686EFA0EDB50696EFB0EDB5054
:103630006A6EFC0EDB506B6EFD0EDB506C6EFE0E88
:10364000DB506D6E6286ED0EDBCFE6FFFC0E601484
:10365000E552E710606E6086010E00D0E552E7CFBC
:04366000D9FF12007C
:0C366400F90EB16EA192A082A282040EA9
:10367000BD6E9E949D849F8412009E50040B01E1B8
:1036800032D29D50040B01E12ED2B2500001846F62
:10369000856BB3500B6E0BC00CF00B6A0B5084277C
:1036A0000C508523B36AB26ABD709E94860501E012
:1036B000D0D0830504E0020E835D01E0CAD0330E52
:1036C000D8808455030E855535E2270E845D050E9E
:1036D000855930E288512EE1825102E187C07FF0A6
:1036E000010E825D10E3825105080DE3050ED880BE
:1036F00082550B6E87510B5204E0E846FE0B0B0619
:10370000FCE100018027060E825D10E382510B0868
:103710000DE30B0ED88082550B6E87510B5204E0DF
:10372000E846FE0B0B06FCE100018127822B010E0F
:10373000886FF9D18F0ED8808455070E85553BE2EE
:10374000830E845D090E855936E2885134E1875134
:1037500002E0000E01D0010E876F825102E187C0A6
:103760007FF0010E825D10E3825105080DE3050E26
:10377000D88082550B6E87510B5204E0E846FE0B51
:103780000B06FCE100018027060E825D10E38251EA
:103790000B080DE30B0ED88082550B6E87510B5230
:1037A00004E0E846FE0B0B06FCE100018127822BBA
:1037B000010E886FB8D1330ED8808455030E85551D
:1037C00009E2270E845D050E855904E2880502E1B1
:1037D000886BA9D18F0ED8808455070E855539E2A4
:1037E000830E845D090E855934E2880532E18751E4
:1037F00002E0000E01D0010E876F825102E187C006
:103800007FF0010E825D10E3825105080DE3050E85
:10381000D88082550B6E87510B5204E0E846FE0BB0
:103820000B06FCE100018027060E825D10E3825149
:103830000B080DE30B0ED88082550B6E87510B528F
:1038400004E0E846FE0B0B06FCE100018127822B19
:103850006AD1860501E0CED0030E835D01E0CAD0B7
:103860001C0ED8808455010E855535E2100E845DFE
:10387000030E855930E288512EE1825102E187C062
:103880007FF0010E825D10E3825108080DE3080EFF
:10389000D88082550B6E87510B5204E0E846FE0B30
:1038A0000B06FCE100018027090E825D10E38251C6
:1038B00010080DE3100ED88082550B6E87510B5205
:1038C00004E0E846FE0B0B06FCE100018127822B99
:1038D000010E886F28D1330ED8808455030E85558C
:1038E0003BE2270E845D050E855936E2885134E1AE
:1038F000875102E0000E01D0010E876F825102E174
:1039000087C07FF0010E825D10E3825108080DE34D
:10391000080ED88082550B6E87510B5204E0E846A2
:10392000FE0B0B06FCE100018027090E825D10E30F
:10393000825110080DE3100ED88082550B6E87510E
:103940000B5204E0E846FE0B0B06FCE10001812768
:10395000822B010E886FE7D01C0ED8808455010E93
:10396000855509E2100E845D030E855904E2880531
:1039700002E1886BD8D0330ED8808455030E85556C
:1039800039E2270E845D050E855934E2880532E15F
:10399000875102E0000E01D0010E876F825102E1D3
:1039A00087C07FF0010E825D10E3825108080DE3AD
:1039B000080ED88082550B6E87510B5204E0E84602
:1039C000FE0B0B06FCE100018027090E825D10E36F
:1039D000825110080DE3100ED88082550B6E87516E
:1039E0000B5204E0E846FE0B0B06FCE100018127C8
:1039F000822B99D0822B865113E1835111E1020E63
:103A0000825D0EE1330ED8808455030E855508E2A1
:103A1000270E845D050E855903E2010E836F63D086
:103A2000865117E1835115E1020E825D12E18F0E7E
:103A3000D8808455070E85550CE2830E845D090EEF
:103A4000855907E2010E866F826B876F020E836FC6
:103A50004AD0865113E1835111E1020E825D0EE1DD
:103A60008A0ED88084550B0E855508E27E0E845D43
:103A70000D0E855903E2030E836F35D086510FE199
:103A8000030E835D0CE1090E825D09E1010E866F74
:103A9000826B876B030E836F010E886F24D0865173
:103AA00016E1830514E1030E825D11E1330ED88027
:103AB0008455030E85550BE2270E845D050E85594E
:103AC00006E2010E866F826B876F836F0CD0825186
:103AD000020805E2030E835D02E0836B04D082518D
:103AE000090801E2836BA150020B1DE0A050020BFC
:103AF0001AE0A192000183510EE081C0E6FF80C070
:103B0000E6FF7FC0E6FF83C0E6FF31EC1EF0E55222
:103B1000E552E552E5520001866B826B806B7F6B4C
:083B2000816B836BBD90120064
:083B2800D9CFE6FFE1CFD9FF80
:103B3000110EE12689D82EEC18F032EC1BF046EC81
:103B40001FF000018D51045C0B6E8E5105580C6EF8
:103B50008F5106580D6E905107580E6ED880640E26
:103B60000B54000E0C54000E0D54000E0E540BE2BC
:103B7000827246EC1FF004C08DF005C08EF006C0C6
:103B80008FF007C090F0DBD7110EE15C02E2E16A32
:103B9000E552E16EE552E7CFD9FF1200DACFE4FF3C
:103BA000E2CFDAFFE9CFE4FFEACFE4FFF6CFE4FFAC
:103BB000F7CFE4FFF5CFE4FFF3CFE4FFF4CFE4FF6A
:103BC000FACFE4FF00EE00F00B0EE80403E3EECFC3
:103BD000E4FFFBD700EE0BF00A0EE80403E3EECFA0
:103BE000E4FFFBD7E65295EC18F03DEC1BF0E552F4
:103BF00000EE14F00A0EE80403E3E5CFEDFFFBD777
:103C000000EE0AF00B0EE80403E3E5CFEDFFFBD76F
:103C1000E5CFFAFFE5CFF4FFE5CFF3FFE5CFF5FF02
:103C2000E5CFF7FFE5CFF6FFE5CFEAFFE5CFE9FF08
:103C3000E5CFDAFF1100DACFE4FFE2CFDAFFE65298
:103C4000E552E5CFDAFF11009492F28EF28CD08E1D
:103C50001200D9CFE6FFE1CFD9FFE552E7CFD9FF78
:103C60001200D9CFE6FFE1CFD9FF110EE126010EF8
:103C7000DF6EDE52DD6E020EDB6A030EDB6A040EBF
:103C8000F36E080EF3CFDBFFFE0EDB50E76E0C0E7B
:103C9000E7CFDBFFFD0EDB50E76E0B0EE7CFDBFF60
:103CA000FC0EDB50E76E0A0EE7CFDBFFFB0EDB50AE
:103CB000E76E090EE7CFDBFF020EE66ED9CFE9FF14
:103CC000DACFEAFFEECFE6FFEECFE6FFEECFE6FF7C
:103CD000EECFE6FFEECFE6FFEECFE6FFEECFE6FF5C
:103CE000EECFE6FFEECFE6FFEECFE6FFEECFE6FF4C
:103CF000EECFE6FFEECFE6FFEECFE6FFEECFE6FF3C
:103D0000EECFE6FFEECFE6FF55EC1AF00B6E120E8B
:103D1000E15E0B50000901E1CFD7110EE15C02E238
:0E3D2000E16AE552E16EE552E7CFD9FF1200ED
:023D2E00D9CFEB
:103D3000E6FFE1CFD9FFFD0EDBCF0BF0FE0EDBCFB0
:103D40000CF00CC00BF00C6A0B50AA6EFF0EE76E65
:103D5000FD0EDBCF0BF0FE0EDBCF0CF0E7500B16A9
:103D60000C6A0B50A96EA69EA69CA680A85000D0F7
:103D7000E552E7CFD9FF1200D9CFE6FFE1CFD9FF57
:103D8000A198FD0EDBCF0BF0FE0EDBCF0CF00CC0CC
:103D90000BF00C6A0B50AA6EFF0EE76EFD0EDBCF28
:103DA0000BF0FE0EDBCF0CF0E7500B160C6A0B503D
:103DB000A96EFC0EDB50A86EA69EA69CA684F29E61
:103DC000550EA76EAA0EA76EA682F28EA1A8FED7E8
:0A3DD000A694E552E7CFD9FF1200D8
:063DDA002A0EF66E300E09
:103DE000F76E000EF86E00010900F5507A6F0900B9
:103DF000F5507B6F03E17A6701D03DD00900F550A3
:103E0000756F0900F550766F0900F550776F09005E
:103E10000900F550E96E0900F550EA6E0900090045
:103E20000900F550786F0900F550796F0900090015
:103E3000F6CF7CF0F7CF7DF0F8CF7EF075C0F6FFBF
:103E400076C0F7FF77C0F8FF0001785302E179539D
:103E500007E00900F550EE6E7807F8E27907F9D728
:103E60007CC0F6FF7DC0F7FF7EC0F8FF00017A0737
:083E7000000E7B5BBFD71200BE
:083E7800790ED66EFE0ED76E26
:103E8000070ED56ED58EF284F28A120091C004F02E
:103E900092C005F093C006F094C007F000D0120065
:103EA000F2A40BD0FE0ED76E790ED66E0001912BC8
:0C3EB000000E922393239423F29412003E
:043EBC001CEE00F008
:103EC0002CEE00F0F86A0A9CEDEC1EF094EC1DF06C
:043ED000FDD7120008
:043ED40000000000EA
:083ED8000000000000000000E2
:0A3EE00000000000000000000100D7
:023EEA0078005E
:00000001FF
