:020000040000FA
:06000000A5EF0FF0120055
:06100000A5EF0FF0120045
:0610080013EF0EF01200D0
:0610180060EF0EF0120073
:06102A000400781F000025
:1010300093000000030000006E1F00007D00000010
:101040000A000000661F0000870000000800000082
:0C105000621F00008F0000000400000080
:04105C00800E6F6E25
:10106000E00E6E14800801E0FBD7040E706ED10E06
:10107000716E810E726E776A778E779C608C609A43
:101080000D01FC6BA46A030EA36EA56EFA696F6A6C
:10109000E00E6E1401E0FCD783EC0FF0000EE66E5C
:1010A000E66ADEEC0EF0E552E5522A082BE1010E6D
:1010B000E66EE66ADEEC0EF0E552E552006E00C028
:1010C00001F0006A00C0E6FF01C0E6FF020EE66E16
:1010D000E66ADEEC0EF0E552E552E552E7CF01F0AC
:1010E000E552E7CF00F000010024936F000E0120CD
:1010F000946F030EE66EE66ADEEC0EF0E552E55202
:101100000001956F0001646B080E656F666B010E40
:101110006A6F6B6F020EE66E64C0E6FF65C0E6FFA5
:1011200066C0E6FF67C0E6FF68C0E6FF69C0E6FF8D
:101130006AC0E6FF6BC0E6FF6CC0E6FF6DC0E6FF6D
:101140006EC0E6FF6FC0E6FF70C0E6FF71C0E6FF4D
:1011500072C0E6FFF3D9006E100EE15E0050000988
:1011600001E1D8D71200A450020B06E1A450020BF3
:1011700003E1A450010B16E00F0E6F141009006E6E
:10118000000E77140010776E60BE6AD8A4A202D059
:10119000A49265D0A4A202D0A49261D0A4A002D04F
:1011A000A4905DD097EC0FF08DEC0FF00001605132
:1011B000125C006E000161511358016E0001625112
:1011C0001458026E000163511558036ED880F40E56
:1011D0000054010E0154000E0254000E03543EE26E
:1011E0000001646B080E0001656F666B0001010E63
:1011F0006A6F0001020E6B6F020EE66E64C0E6FFBE
:1012000065C0E6FF66C0E6FF67C0E6FF68C0E6FFB0
:1012100069C0E6FF6AC0E6FF6BC0E6FF6CC0E6FF90
:101220006DC0E6FF6EC0E6FF6FC0E6FF70C0E6FF70
:1012300071C0E6FF72C0E6FF81D9006E100EE15E5C
:101240000050000901E1D8D78DEC0FF012C060F01A
:1012500013C061F014C062F015C063F00400120006
:10126000D9CFE6FFE1CFD9FF0F0EE126F00E6114D2
:10127000E8380F0BDF6E0F0E6114066E076A060E5C
:10128000D89006360736E804FBE1E00E6214086EDB
:10129000096AD89009320832D890093208320650CB
:1012A0000824046E07500920056E030E62140A6EAE
:1012B0000B6AD8900A360B3604500A24026E055089
:1012C0000B20036E800E63140C6E0D6A070ED8900F
:1012D0000D320C32E804FBE102500C24006E035086
:1012E0000D20016E010E00C0DBFF020E01C0DBFF0E
:1012F0007E0E6314E8407F0BE76E030EE7CFDBFF43
:10130000010E6314026E02C003F0026A6450000111
:101310000224006E000E0320016E040E00C0DBFFED
:10132000050E01C0DBFF6550010B026E6550020B1C
:1013300001E0010EE824016E6550040B01E0010E8E
:10134000040DF3CF00F06550080B01E0010E080D0D
:10135000F350002401240224E76E060EE7CFDBFFE2
:10136000070E66CFDBFF080E67CFDBFF090E68CFE5
:10137000DBFF0A0E69CFDBFF0B0E6ACFDBFF0C0E23
:101380006BCFDBFF0D0E6CCFDBFF0E0E6DCFDBFFE7
:10139000609EDF5001E0A0D0030EDB500001955DA0
:1013A00001E09AD00C0EDBCF02F002C003F0026A1B
:1013B0000B0EDB5000010224006E000E0320016EB4
:1013C00000019351001802E19451011801E084D00A
:1013D000D950010FE96EDACFEAFF010EEE1801E1F4
:1013E000ED5001E1FF00D950010FE96EDACFEAFFBD
:1013F000060EEE1801E1ED506FE1080EDBCF00F0B4
:1014000000C001F0006A070EDB5000010024936F5A
:10141000000E0120946F090EDBCF95F0080EDBCF94
:10142000E6FF010EE66EE66A03EC0FF0E552E552C8
:10143000E552070EDBCFE6FF020EE66EE66A03EC2E
:101440000FF0E552E552E552090EDBCFE6FF030E41
:10145000E66EE66A03EC0FF0E552E552E5522A0E1D
:10146000E66E000EE66EE66A03EC0FF0E552E5521A
:10147000E5520001646B040E0001656F666B0001AC
:10148000080E6A6F00016F6B020EE66E64C0E6FF25
:1014900065C0E6FF66C0E6FF67C0E6FF68C0E6FF1E
:1014A00069C0E6FF6AC0E6FF6BC0E6FF6CC0E6FFFE
:1014B0006DC0E6FF6EC0E6FF6FC0E6FF70C0E6FFDE
:1014C00071C0E6FF72C0E6FF39D8006E100EE15E13
:1014D0000050000901E1D8D7D9CFE9FFDACFEAFF00
:1014E000EECFE6FFEECFE6FFEECFE6FFEECFE6FF74
:1014F000EECFE6FFEECFE6FFEECFE6FFEECFE6FF64
:10150000EECFE6FFEECFE6FFEECFE6FFEECFE6FF53
:10151000EECFE6FFEECFE6FFEECFE6FF6EEC0EF08D
:10152000006E0F0EE15E00500F0EE15C02E2E16A18
:10153000E552E16EE552E7CFD9FF1200D9CFE6FFC1
:10154000E1CFD9FF0F0140B704D0000E7714030993
:10155000776E0F0130B704D0000E77140409776E50
:101560000F0120B705D0000E77140509776E02D061
:10157000000EB9D0EF0EDBCF00F000340EE2EF0E1C
:10158000DBCF01F0030EE76E0118E8AE02D00134A4
:1015900003D0E750D880015402E2EF0EDB6AF30E6D
:1015A00095C0DBFFF40E93C0DBFFF50E94C0DBFFAC
:1015B000F10EDBCF00F0F20EDBCF01F0C00E001613
:1015C000030E0116060ED89001320032E804FBE14A
:1015D000F00EDB500F0B100DF3500024616E060E61
:1015E000E76EF10EDBCF02F0F20EDBCF03F0E75037
:1015F0000216036AD890033202323F0EE76EF10EF4
:10160000DBCF00F0F20EDBCF01F0E7500016016AED
:10161000D89000360136D8900036013600500224AA
:10162000626EF40EDBCF02F0F50EDBCF03F0000E9E
:101630000216010E031603C002F0036A010EE76EE4
:10164000F10EDBCF00F0F20EDBCF01F0E750001619
:10165000016A070ED89000360136E804FBE1F30E6C
:10166000DB503F0BE82400240224636EFF0EE76E7C
:10167000F40EDBCF00F0F50EDBCF01F0E7500016E3
:10168000016A0050646E656AF60EDB50080803E2DA
:10169000080E656E03D0F60EDB50656E659CF70E86
:1016A000DB50666EF80EDB50676EF90EDB50686E2D
:1016B000FA0EDB50696EFB0EDB506A6EFC0EDB50DF
:1016C0006B6EFD0EDB506C6EFE0EDB506D6E628637
:1016D000EF0EDBCFE6FFFC0E6014E552E710606E04
:0E16E0006086010E00D0E552E7CFD9FF120060
:0216EE00F90EF3
:1016F000B16EA192A082A282040EBD6E9E949D84C2
:101700009F8412009E50040B01E132D29D50040BC5
:1017100001E12ED2B2500001826F836BB350006E94
:1017200000C001F0006A0050822701508323B36A91
:10173000B26ABD709E94840501E0D0D0810504E0BA
:10174000020E815D01E0CAD0330ED8808255030EAF
:10175000835535E2270E825D050E835930E28651AE
:101760002EE1805102E185C07DF0010E805D10E325
:10177000805105080DE3050ED8808055006E855117
:10178000005204E0E846FE0B0006FCE100017E2763
:10179000060E805D10E380510B080DE30B0ED88020
:1017A0008055006E8551005204E0E846FE0B0006AD
:1017B000FCE100017F27802B010E866FF9D18F0E8F
:1017C000D8808255070E83553BE2830E825D090E59
:1017D000835936E2865134E1855102E0000E01D092
:1017E000010E856F805102E185C07DF0010E805DA4
:1017F00010E3805105080DE3050ED8808055006E7A
:101800008551005204E0E846FE0B0006FCE10001B1
:101810007E27060E805D10E380510B080DE30B0E52
:10182000D8808055006E8551005204E0E846FE0BDA
:101830000006FCE100017F27802B010E866FB8D1E6
:10184000330ED8808255030E835509E2270E825D40
:10185000050E835904E2860502E1866BA9D18F0E3D
:10186000D8808255070E835539E2830E825D090EBA
:10187000835934E2860532E1855102E0000E01D041
:10188000010E856F805102E185C07DF0010E805D03
:1018900010E3805105080DE3050ED8808055006ED9
:1018A0008551005204E0E846FE0B0006FCE1000111
:1018B0007E27060E805D10E380510B080DE30B0EB2
:1018C000D8808055006E8551005204E0E846FE0B3A
:1018D0000006FCE100017F27802B6AD1840501E02E
:1018E000CED0030E815D01E0CAD01C0ED880825597
:1018F000010E835535E2100E825D030E835930E2EE
:1019000086512EE1805102E185C07DF0010E805D9F
:1019100010E3805108080DE3080ED8808055006E52
:101920008551005204E0E846FE0B0006FCE1000190
:101930007E27090E805D10E3805110080DE3100E24
:10194000D8808055006E8551005204E0E846FE0BB9
:101950000006FCE100017F27802B010E866F28D155
:10196000330ED8808255030E83553BE2270E825DED
:10197000050E835936E2865134E1855102E0000EAE
:1019800001D0010E856F805102E185C07DF0010E0E
:10199000805D10E3805108080DE3080ED880805563
:1019A000006E8551005204E0E846FE0B0006FCE1A3
:1019B00000017E27090E805D10E3805110080DE3C1
:1019C000100ED8808055006E8551005204E0E84624
:1019D000FE0B0006FCE100017F27802B010E866FC5
:1019E000E7D01C0ED8808255010E835509E2100EF7
:1019F000825D030E835904E2860502E1866BD8D02E
:101A0000330ED8808255030E835539E2270E825D4E
:101A1000050E835934E2860532E1855102E0000E5D
:101A200001D0010E856F805102E185C07DF0010E6D
:101A3000805D10E3805108080DE3080ED8808055C2
:101A4000006E8551005204E0E846FE0B0006FCE102
:101A500000017E27090E805D10E3805110080DE320
:101A6000100ED8808055006E8551005204E0E84683
:101A7000FE0B0006FCE100017F27802B99D0802B14
:101A8000845113E1815111E1020E805D0EE1330EAC
:101A9000D8808255030E835508E2270E825D050E1D
:101AA000835903E2010E816F63D0845117E18151A4
:101AB00015E1020E805D12E18F0ED8808255070E6F
:101AC00083550CE2830E825D090E835907E2010EF5
:101AD000846F806B856F020E816F4AD0845113E151
:101AE000815111E1020E805D0EE18A0ED88082558F
:101AF0000B0E835508E27E0E825D0D0E835903E2C4
:101B0000030E816F35D084510FE1030E815D0CE12E
:101B1000090E805D09E1010E846F806B856B030EF9
:101B2000816F010E866F24D0845116E1810514E186
:101B3000030E805D11E1330ED8808255030E83556C
:101B40000BE2270E825D050E835906E2010E846FBB
:101B5000806B856F816F0CD08051020805E2030E07
:101B6000815D02E0816B04D08051090801E2816B44
:101B7000A150020B1DE0A050020B1AE0A19200013F
:101B800081510EE07FC0E6FF7EC0E6FF7DC0E6FF2C
:101B900081C0E6FF7DEC0EF0E552E552E552E552DC
:101BA0000001846B806B7E6B7D6B7F6B816BBD9066
:021BB000120021
:0E1BB200D9CFE6FFE1CFD9FF0F0EE12689D88B
:101BC0002EEC08F077EC0BF08DEC0FF000018B5150
:101BD000125C006E8C511358016E8D511458026EB8
:101BE0008E511558036ED880640E0054000E0154B7
:101BF000000E0254000E03540BE282728DEC0FF0C3
:101C000012C08BF013C08CF014C08DF015C08EF094
:101C1000DBD70F0EE15C02E2E16AE552E16EE552CC
:101C2000E7CFD9FF1200DACFE4FFE2CFDAFFE9CF46
:101C3000E4FFEACFE4FFF6CFE4FFF7CFE4FFF5CF10
:101C4000E4FFF3CFE4FFF4CFE4FFFACFE4FF00EECC
:101C50000EF00B0EE80403E3EECFE4FFFBD700EE3B
:101C600000F00E0EE80403E3EECFE4FFFBD7E652EC
:101C7000B3EC08F082EC0BF0E55200EE0DF00E0E26
:101C8000E80403E3E5CFEDFFFBD700EE18F00B0E01
:101C9000E80403E3E5CFEDFFFBD7E5CFFAFFE5CF9F
:101CA000F4FFE5CFF3FFE5CFF5FFE5CFF7FFE5CF95
:101CB000F6FFE5CFEAFFE5CFE9FFE5CFDAFF110058
:101CC000DACFE4FFE2CFDAFFE652E552E5CFDAFF02
:101CD00011009492F28EF28CD08E1200D9CFE6FFD2
:101CE000E1CFD9FF0F0EE126E15C02E2E16AE552A5
:101CF000E16EE552E7CFD9FF1200D9CFE6FFE1CF81
:101D0000D9FF0F0EE126010EDF6EF36EF3CFDBFF7E
:101D1000020EDB6A040EF36E060EF3CFDBFFFE0E3F
:101D2000DB50E76E0A0EE7CFDBFFFD0EDB50E76E00
:101D3000090EE7CFDBFFFC0EDB50E76E080EE7CFA6
:101D4000DBFFFB0EDB50E76E070EE7CFDBFF020E7B
:101D5000E66ED9CFE9FFDACFEAFFEECFE6FFEECFAE
:101D6000E6FFEECFE6FFEECFE6FFEECFE6FFEECFEB
:101D7000E6FFEECFE6FFEECFE6FFEECFE6FFEECFDB
:101D8000E6FFEECFE6FFEECFE6FFEECFE6FFEECFCB
:101D9000E6FFEECFE6FF9EEC0AF0006E100EE15E6D
:101DA0000050000901E1D3D70F0EE15C02E2E16AC5
:0C1DB000E552E16EE552E7CFD9FF1200CA
:041DBC00D9CFE6FF96
:101DC000E1CFD9FFFD0EDBCF00F0FE0EDBCF01F03F
:101DD00001C000F0016A0050AA6EFF0EE76EFD0E12
:101DE000DBCF00F0FE0EDBCF01F0E7500016016AFA
:101DF0000050A96EA69EA69CA680A85000D0E552D1
:101E0000E7CFD9FF1200D9CFE6FFE1CFD9FFA198E4
:101E1000FD0EDBCF00F0FE0EDBCF01F001C000F0C5
:101E2000016A0050AA6EFF0EE76EFD0EDBCF00F0D8
:101E3000FE0EDBCF01F0E7500016016A0050A96EDC
:101E4000FC0EDB50A86EA69EA69CA684F29E550EA4
:101E5000A76EAA0EA76EA682F28EA1A8FED7A694A0
:081E6000E552E7CFD9FF1200A3
:081E68002A0EF66E100EF76E53
:101E7000000EF86E00010900F550786F0900F5506A
:101E8000796F03E1786701D03DD00900F550736F99
:101E90000900F550746F0900F550756F09000900CD
:101EA000F550E96E0900F550EA6E090009000900D5
:101EB000F550766F0900F550776F09000900F6CFED
:101EC0007AF0F7CF7BF0F8CF7CF073C0F6FF74C0E8
:101ED000F7FF75C0F8FF0001765302E1775307E082
:101EE0000900F550EE6E7607F8E27707F9D77AC069
:101EF000F6FF7BC0F7FF7CC0F8FF00017807000EFB
:061F0000795BBFD712005F
:0A1F0600790ED66EFE0ED76E070EA0
:101F1000D56ED58EF284F28A12008FC012F090C076
:101F200013F091C014F092C015F000D01200F2A48A
:101F30000BD0FE0ED76E790ED66E00018F2B000EE1
:0A1F4000902391239223F2941200E3
:061F4A001CEE00F02CEE7D
:101F500000F0F86A189C34EC0FF0D9EC0DF0FDD7C6
:021F600012006D
:041F6200000000007B
:081F6600000000000000000073
:021F6E00000071
:081F7000000000000000010068
:031F7800780000EE
:00000001FF
