:020000040000FA
:060000009FEF05F0120065
:0600080097EF02F0120068
:06001800F0EF02F01200FF
:06002A0002005A0B000069
:100030006A0000000A000000560B00007400000077
:0400400004000000B8
:0C004400800E6F6EE00E6E14800801E06C
:10005000FBD7040E706ED10E716E810E726E776AD0
:10006000778E779C608C609A738A0D01FC6BA46A12
:10007000030EA36EA56EFA696F6AE00E6E1401E0BE
:10008000FCD71200A450020B06E1A450020B03E1BE
:10009000A450010B16E00F0E6F141009006E000E35
:1000A00077140010776E60BE0DD8A4A202D0A4927F
:1000B00008D0A4A202D0A49204D0A4A002D0A490FC
:1000C00000D01200D9CFE6FFE1CFD9FF0F0EE12615
:1000D0006250080B02E1000E01D0010EE76E040E23
:1000E000E7CFDBFFDE6ADE6ADE6ADD6ADD52DD5203
:1000F000DB046FE16150006E016A026A036A150E4B
:100100001F0B07E0D8900036013602360336E806AA
:10011000F9E1E00E6214046E056A066A076A0D0EC4
:100120001F0B07E0D8900436053606360736E8067A
:10013000F9E1045000260550012206500222075022
:100140000322030E6214086E096A0A6A0B6A100E13
:100150001F0B07E0D890083609360A360B36E8063A
:10016000F9E108500026095001220A5002220B50E2
:10017000032263500C6E0D6A0E6A0F6A080E1F0B85
:1001800007E0D8900C360D360E360F36E806F9E14A
:100190000C5000260D5001220E5002220F50032257
:1001A0006450106E116A126A136A105000261150C2
:1001B0000122125002221350032200C0DFFF010E61
:1001C00001C0DBFF020E02C0DBFF030E03C0DBFF3A
:1001D0002FD06150006E016A026A036A030E1F0B82
:1001E00007E0D8900036013602360336E806F9E11A
:1001F0006250046E056A066A076A050ED8900732D7
:10020000063205320432E806F9E1045000260550B2
:100210000122065002220750032200C0DFFF010E18
:1002200001C0DBFF020E02C0DBFF030E03C0DBFFD9
:100230006550010B026E6550020B01E0010EE824CF
:10024000016E6550040B01E0010E040DF3CF00F0C8
:100250006550080B01E0010E080DF3500024012445
:100260000224E76E060EE7CFDBFF6550400B02E18C
:10027000000E01D0010EE76E050EE7CFDBFF070E83
:1002800066CFDBFF080E67CFDBFF090E68CFDBFF11
:100290000A0E69CFDBFF0B0E6ACFDBFF0C0E6BCFB4
:1002A000DBFF0D0E6CCFDBFF0E0E6DCFDBFF609E14
:1002B000D9CFE9FFDACFEAFFEECFE6FFEECFE6FFD8
:1002C000EECFE6FFEECFE6FFEECFE6FFEECFE6FFA6
:1002D000EECFE6FFEECFE6FFEECFE6FFEECFE6FF96
:1002E000EECFE6FFEECFE6FFEECFE6FFEECFE6FF86
:1002F000EECFE6FF09EC03F0006E0F0EE15E00505A
:100300000F0EE15C02E2E16AE552E16EE552E7CFF1
:10031000D9FF1200D9CFE6FFE1CFD9FF0F0140B7D7
:1003200004D0000E77140309776E0F0130B704D0A4
:10033000000E77140409776E0F0120B705D0000E68
:1003400077140509776E02D0000EE4D0EF0EDBCFF4
:1003500000F000340EE2EF0EDBCF01F0030EE76E8B
:100360000118E8AE02D0013403D0E750D880015420
:1003700002E2EF0EDB6AF40EDB045FE1F00EDBCF8E
:1003800000F0F10EDBCF01F0F20EDBCF02F0F30E46
:10039000DBCF03F0150ED890033202320132003267
:1003A000E806F9E10050616EF00EDBCF05F0F10ECA
:1003B000DBCF06F0F20EDBCF07F0F30EDBCF08F059
:1003C0000D0ED8900832073206320532E806F9E100
:1003D000E00E0514046EF00EDBCF00F0F10EDBCF63
:1003E00001F0F20EDBCF02F0F30EDBCF03F0100EC4
:1003F000D8900332023201320032E806F9E1030EEE
:1004000000140424626EF00EDBCF00F0F10EDBCF9F
:1004100001F0F20EDBCF02F0F30EDBCF03F0080E9B
:10042000D8900332023201320032E806F9E100507E
:10043000636EF00EDB50646E2FD0F00EDBCF00F059
:10044000F10EDBCF01F0F20EDBCF02F0F30EDBCFCB
:1004500003F0030ED8900332023201320032E80674
:10046000F9E10050616EF00EDBCF00F0F10EDBCF52
:1004700001F0F20EDBCF02F0F30EDBCF03F0050E3E
:100480001F0B07E0D8900036013602360336E80627
:10049000F9E1E00E0014626E656AF60EDB500808A2
:1004A00003E2080E656E03D0F60EDB50656EF50EA6
:1004B000DB0402E1658C01D0659CF70EDB50666EB3
:1004C000F80EDB50676EF90EDB50686EFA0EDB50EB
:1004D000696EFB0EDB506A6EFC0EDB506B6EFD0E20
:1004E000DB506C6EFE0EDB506D6EF40EDB0402E131
:1004F000010E01D0000EE8B06286E8A06296EF0E11
:10050000DBCFE6FFFC0E6014E552E710606E6086FC
:0C051000010E00D0E552E7CFD9FF120029
:04051C0074D822EC81
:1005200000F0A7EC04F07DEC05F0FFD71200D8CF67
:10053000E4FFE0CFE4FFE46EDACFE4FFE2CFDAFFDE
:10054000E9CFE4FFEACFE4FFF6CFE4FFF7CFE4FF23
:10055000F5CFE4FFF3CFE4FFF4CFE4FFFACFE4FFFD
:1005600000EE14F00B0EE80403E3EECFE4FFFBD73C
:1005700000EE00F0140EE80403E3EECFE4FFFBD737
:10058000E65213EC05F042EC00F091EC05F0E55278
:1005900000EE13F0140EE80403E3E5CFEDFFFBD704
:1005A00000EE1EF00B0EE80403E3E5CFEDFFFBD7F2
:1005B000E5CFFAFFE5CFF4FFE5CFF3FFE5CFF5FF99
:1005C000E5CFF7FFE5CFF6FFE5CFEAFFE5CFE9FF9F
:1005D000E5CFDAFFE550E5CFE0FFE5CFD8FF10002B
:1005E000D8CFE4FFE0CFE4FFE46EDACFE4FFE2CF60
:1005F000DAFFE652E552E5CFDAFFE550E5CFE0FF5E
:10060000E5CFD8FF10009492F19EF28EF28CD08E3E
:100610001200D9CFE6FFE1CFD9FF020EE126DE6A54
:10062000DD6AFD0EE66EB6EC04F0E552F00EDBCFAF
:10063000E6FFB6EC04F0E552F00EDBCF00F0F10E71
:10064000DBCF01F0F20EDBCF02F0F30EDBCF03F0D5
:10065000080ED8900332023201320032E806F9E186
:100660000050E66EB6EC04F0E552F00EDBCF00F081
:10067000F10EDBCF01F0F20EDBCF02F0F30EDBCF99
:1006800003F0100ED8900332023201320032E80635
:10069000F9E10050E66EB6EC04F0E552F00EDBCF67
:1006A00000F0F10EDBCF01F0F20EDBCF02F0F30E23
:1006B000DBCF03F0180ED890033202320132003241
:1006C000E806F9E10050E66EB6EC04F0E552F40EEF
:1006D000DBCFE6FFB6EC04F0E552F50EDBCFE6FF2C
:1006E000B6EC04F0E552F60EDBCFE6FFB6EC04F014
:1006F000E552DE6ADD6ADECF00F0DDCF01F0D89092
:10070000015004E6080E005C000E015816E2D950B4
:10071000F70F006EFF0EDA20016EDE500024E96E46
:10072000DD500120EA6EEF50E66EB6EC04F0E552C3
:10073000DF2A010E01E3DB2ADED7FA0EE66EB6EC05
:1007400004F0E552020EE15C02E2E16AE552E16E7C
:10075000E552E7CFD9FF1200D9CFE6FFE1CFD9FFAD
:10076000120EE126010EDB6A020EDB6A00016E0545
:100770001AE187EC05F000016F51185C006E7051B2
:100780001958016E71511A58026E72511B58036E3E
:10079000D880050E0054000E0154000E0254000EC5
:1007A000035401E26E6B6E0501E0A5D087EC05F005
:1007B00018C06FF019C070F01AC071F01BC072F051
:1007C0000F0E0001735D3BE3FE0EDB50006E016A0D
:1007D000FA0E001801E101502FE18272030EE66E5D
:1007E000D950030FE96EDACFEAFFEECFE6FFEECF86
:1007F000E6FFEECFE6FFEECFE6FFEECFE6FFEECF71
:10080000E6FFEECFE6FFEECFE6FFEECFE6FFEECF60
:10081000E6FFEECFE6FFEECFE6FFEECFE6FFEECF50
:10082000E6FFEECFE6FF8AEC01F0006E100EE15E0F
:100830000050000901E1D2D700016E6B7ED0070E97
:10084000735D13E3D9500A0F006EDACF01F0070E83
:10085000735D0F010024E96E000E0120EA6EFE0EAA
:10086000DBCFEFFF0001732B68D0060E735D08E34A
:10087000FE0EDB50E76E090EE7CFDBFF732B5DD07A
:10088000050E735D08E3FE0EDB50E76E080EE7CF42
:10089000DBFF732B52D0040E735D08E3FE0EDB50BA
:1008A000E76E070EE7CFDBFF732B47D0000E735DBB
:1008B00022E3FE0EDBCF00F0016A026A036A080E33
:1008C0007303F3501F0B07E0D89000360136023651
:1008D0000336E806F9E1D950030FE96EDACFEAFFF3
:1008E0000050EE260150EE220250EE220350EE227E
:1008F0000001732B22D0FE0EDB50006E016AFD0E4C
:10090000001801E1015019E16E5117E1010E6E6FFF
:1009100087EC05F018C06FF019C070F01AC071F0C4
:100920001BC072F00001736B030EDB6A040EDB6AFE
:10093000050EDB6A060EDB6A00D0120EE15C02E2F5
:0E094000E16AE552E16EE552E7CFD9FF120001
:02094E00948E85
:10095000949C200EAC6EAC84B886B06A550EAF6E17
:10096000900EAB6E9E9A9D8A9F8A1200D9CFE6FFA9
:10097000E1CFD9FFFE0EDB50AD6E4BD8000901E090
:10098000FCD7E552E7CFD9FF1200D9CFE6FFE1CF80
:10099000D9FF3FD8000901E0FCD7FD0EDBCFE9FF0E
:1009A000FE0EDBCFEAFFEF50E66EE0DFE552FD0E14
:1009B000DBCFE9FFDB2AFE0EDBCFEAFF01E3DB2A18
:1009C000EF50E7E1E552E7CFD9FF1200D9CFE6FFBC
:1009D000E1CFD9FF1ED8000901E0FCD7FD0EDBCF27
:1009E000F6FFFE0EDBCFF7FF0800F550E66EBEDF28
:1009F000E552FD0EDBCFF6FFDB2AFE0EDBCFF7FF65
:100A000001E3DB2A0800F550E5E1E552E7CFD9FF25
:100A10001200AC50020B020A01E0010E00D01200DD
:100A2000AE5000D012009E50200B0DE09D50200BC8
:100A30000AE0ABA202D0AB98AB88F2DFE66EACEC7A
:100A400003F0E5529E9A1200ABA202D0AB98AB889D
:0C0A50009E50200B01E0010E00D01200AF
:040A5C002A0EF66EFA
:100A6000000EF76E000EF86E00010900F550656F7C
:100A70000900F550666F03E1656701D03DD00900BC
:100A8000F550606F0900F550616F0900F550626F15
:100A900009000900F550E96E0900F550EA6E0900F9
:100AA00009000900F550636F0900F550646F0900F3
:100AB0000900F6CF67F0F7CF68F0F8CF69F060C0B3
:100AC000F6FF61C0F7FF62C0F8FF0001635302E167
:100AD000645307E00900F550EE6E6307F8E264071F
:100AE000F9D767C0F6FF68C0F7FF69C0F8FF0001DB
:0A0AF0006507000E665BBFD7120019
:060AFA00790ED66EFE0E1F
:100B0000D76E070ED56ED58EF284F28A120074C0AD
:100B100018F075C019F076C01AF077C01BF000D03D
:100B20001200F2A40BD0FE0ED76E790ED66E000125
:0E0B3000742B000E752376237723F2941200A7
:020B3E001CEEAB
:100B400000F02CEE00F0F86A1E9C2EEC05F08EEC06
:060B500002F0FDD71200C7
:040B5600000000009B
:060B5A0000000000000095
:040B60000000000091
:00000001FF
